:020000040000fa
:080000000002040000000000f2
:020000040000fa
:1000080090020000900200009002000090020000a0
:100018009002000090020000900200009002000090
:10002800b4820000900200009002000014800000da
:10003800bc820000900200009002000036800000a0
:100048004a80000090020000900200009002000028
:100058009002000090020000900200009002000050
:100068009002000090020000900200009002000040
:1000780072800000900200009002000090020000d0
:100088009002000090020000900200005e800000d4
:100098009002000090020000900200009002000010
:1000a8009002000090020000900200009002000000
:1000b80090020000900200009002000090020000f0
:1000c80090020000900200009002000090020000e0
:1000d80090020000900200009002000090020000d0
:1000e80090020000900200009002000090020000c0
:1000f80090020000900200009002000090020000b0
:10010800900200009002000090020000900200009f
:10011800900200009002000090020000900200008f
:10012800900200009002000090020000900200007f
:10013800900200009002000090020000900200006f
:10014800900200009002000090020000900200005f
:10015800900200009002000090020000900200004f
:10016800900200009002000090020000900200003f
:10017800900200009002000090020000900200002f
:10018800900200009002000090020000900200001f
:10019800900200009002000090020000900200000f
:1001a80090020000900200009002000090020000ff
:1001b80090020000900200009002000090020000ef
:1001c80090020000900200009002000090020000df
:1001d80090020000900200009002000090020000cf
:1001e80090020000900200009002000090020000bf
:0801f8009002000090020000db
:020000040000fa
:10020800900200009002000090020000900200009e
:10021800900200009002000090020000900200008e
:10022800b4820000900200009002000014800000d8
:10023800bc8200009002000090020000368000009e
:100248004a80000090020000900200009002000026
:10025800900200009002000090020000900200004e
:10026800900200009002000090020000900200003e
:1002780072800000900200009002000090020000ce
:100288009002000090020000900200005e800000d2
:10029800900200009002000090020000900200000e
:1002a80090020000900200009002000090020000fe
:1002b80090020000900200009002000090020000ee
:1002c80090020000900200009002000090020000de
:1002d80090020000900200009002000090020000ce
:1002e80090020000900200009002000090020000be
:1002f80090020000900200009002000090020000ae
:10030800900200009002000090020000900200009d
:10031800900200009002000090020000900200008d
:10032800900200009002000090020000900200007d
:10033800900200009002000090020000900200006d
:10034800900200009002000090020000900200005d
:10035800900200009002000090020000900200004d
:10036800900200009002000090020000900200003d
:10037800900200009002000090020000900200002d
:10038800900200009002000090020000900200001d
:10039800900200009002000090020000900200000d
:1003a80090020000900200009002000090020000fd
:1003b80090020000900200009002000090020000ed
:1003c80090020000900200009002000090020000dd
:1003d80090020000900200009002000090020000cd
:1003e80090020000900200009002000090020000bd
:0803f8009002000090020000d9
:020000040000fa
:10040000af8520000e5f22000e0188000000000072
:100410000c000700c0522900010020001100070055
:10042000000020000000e000020032000000020096
:1004300000000000807c0200000000000040da00a4
:100440000000fe004440a900000821000000e00078
:100450000300320000002000a00188004440a800f2
:100460000000060091018800800078000000eb0089
:1004700015003700e280400032a0b4009101ba00bc
:10048000e280400032a0b4009102ba00e280400055
:1004900032a0b4000002eb00472bde00f507b200eb
:1004a000602ce10004003a000059eb008301e900f0
:1004b000fdff3e00040037006128e100010032002a
:1004c0000082eb00040007001101ba000200e00006
:1004d000e8ff3a00000006003159ba008301e90044
:1004e0000c0032002159ba008301e90008003200f3
:1004f0000400e00003003a00e280400032a0b400b3
:10050000f5ff370011d9ba008301e900faff3a007c
:100510008100e800e180400032a0b4000000060045
:100520000040da000000fe003200f800023b8800c4
:10053000910188000008bb000500fc005105200067
:10054000313b8800a10a2000313b880061e7a80008
:1005500000000000000000003200f900000006006a
:100560000400a100010037000400a0003200f800e0
:100570009101880011002400013b8800f10f200048
:100580003208bb000400a700b20078000198bb004d
:100590008301e900faff3a00680151000400a70056
:1005a00068015100680050001208bb00e2ff3700ec
:1005b000f30f20003200f800910188003100240080
:1005c000013b88000208bb000388bb00daff37004c
:1005d0003200f800003b8800d7ff37003200f800f7
:1005e000910188008002780062004000e0804800ad
:1005f0003549ba003204e0000410a70010003200b0
:100600008301e9000e0032002549ba003204e000ff
:100610000410a7000a0032008301e900080032003c
:100620000408a300eeff320015c9ba003204e0004e
:100630000410a700020032008301e900e8ff3a003d
:080640003200f9000000060081
:020000040000fa
:10d000000000000000000000000000000000000020
:10d010000000000000000000000000000000000010
:10d020000000000000000000000000000000000000
:10d0300000000000000000000000000000000000f0
:020000040000fa
:10d81000000000000000000080800000c0c0000088
:10d82000e0e00000f0f00000f8fc0000dc1c00006c
:10d830007c0e0000fefe0000fe8e0000267600003a
:10d84000268e0000fffe0000f666000086e600005f
:10d85000eefe00007c1c000058980000b0f00000b4
:10d86000e0e00000c0c000008000000000000000f8
:10d8700000000000000000000000000000000000a8
:10d88000000000000000000000000000c040000098
:10d89000c000000000000000e000000000000000e8
:10d8a0000000000000000000000000000000000078
:10d8b0000000000000000000000000000000000068
:10d8c000000000000000000000000000e000000078
:10d8d0000000000000000000000000000000000048
:10d8e0000000000000000000000000000000000038
:10d8f0000000000000000000000000000000000028
:10d90000000000000000000000000000c0f0000067
:10d91000f0f80000fcff0000ffff0000fdf8000031
:10d92000e1c70000ffff0000ffff0000ffff000055
:10d93000fefc0000ffff0000ffff0000ffff0000f3
:10d94000ffff0000ffff0000fffe0000ffff0000e0
:10d95000ffff0000fcf90000fafe0000ffe70000f6
:10d96000c3d80000dcd90000e3ff0000fefc00008b
:10d97000f8f00000f0c0000000000000000000000f
:10d980000000000000000000203e00000908000028
:10d99000090e0000300000003f210000212100009e
:10d9a0001e000000002700002529000039000000ab
:10d9b000001e00002525000027000000003f000099
:10d9c00002010000013e0000000100001f210000d4
:10d9d000210000001e250000252700000000000097
:10d9e0001e2500002527000000000000272500005c
:10d9f00029390000000000000000000000000000c5
:10da000000800000f0f80000fcff0000ffff0000b5
:10da1000ffff0000ffff0000ffff00007f7f00000e
:10da20007f3f00008fc7000047f30000f3b90000fc
:10da3000e97d0000dd7b0000f3b300001b890000de
:10da40008544000044250000294b0000494900009e
:10da5000454500002929000023130000870f00001e
:10da60007fff0000ffff0000ffff0000ffff00003e
:10da7000ffff0000ffff0000fffc0000f8e00000d7
:10da80008000000000000000000000000000000016
:10da90000000000000000000000000000000000086
:10daa0000000000040400000c040000040000000b6
:10dab0000000000000000000000000000000000066
:10dac0000000000000000000000000000000000056
:10dad0000000000000000000000000000040000006
:10dae0004040000080000000000000000000000036
:10daf0000000000000000000000000000000000026
:10db0000e0ff0000ffff0000ffff0000ffff00003c
:10db1000ffff0000fff00000801e0000f6f600008e
:10db2000bffd0000ffed00007ffb0000deff0000f6
:10db30007def0000fbff00005d7f00003318000058
:10db40004c4c00002612000089490000525200008f
:10db50004a2a00002a2a000029a500009492000009
:10db600088410000071f00003fff0000ffff00008a
:10db7000ffff0000ffff0000ffff0000ffff0000ad
:10db8000ffe00000000000000000000000000000b6
:10db90000000000000000000000000000000000085
:10dba00000000000000000001f0000000000000056
:10dbb0001e15000015170000000000001d150000d4
:10dbc000151f0000100000001e010000011f0000d2
:10dbd000010100001f000000000000000012000012
:10dbe000121200000d000000000000000000000004
:10dbf0000000000000000000000000000000000025
:10dc00000020000020200000202400002424000028
:10dc100024240000242400000c08000000e0000080
:10dc2000a0a000002302000022e40000240c000059
:10dc3000e8a00000a040000000e10000a1a2000058
:10dc400022020000e40000000000000000200000ac
:10dc500060c0000080a00000e0c0000080800000e4
:10dc600080800000808000008080000080800000b4
:10dc7000a0e00000e0c00000800000000000000004
:10dc80000000000000080000080800000a8a0000e8
:10dc90008ac9000049490000282000002027000010
:10dca0008080000040400000444700004420000005
:10dcb0002700000000870000804700004444000067
:10dcc00044200000251000001000000000040000a7
:10dcd0000603000001050000070300000101000029
:10dce000010100000101000001010000010100002c
:10dcf000050700000703000001000000000000000d
:10dd0000023e000052920000121200002262000047
:10dd1000a20a00001a7a0000f2e20000ca9a00008b
:10dd2000baf20000e2c2000082820000828200009b
:10dd300092920000b2a2000082820000828a00005b
:10dd40009292000082820000829200009292000073
:10dd5000a2820000828200008a920000929200005b
:10dd600092a2000082820000828200008a9a000053
:10dd7000faf20000e2e20000c2c2000082120000db
:10dd8000407c00004a49000048480000444600002a
:10dd900045500000585e00004f47000053590000f6
:10dda0005d4f000047430000414100004141000039
:10ddb000414900004d45000041410000414900003b
:10ddc000494900004541000041410000414900002f
:10ddd0004945000045410000415100005149000003
:10dde00049450000414100004141000051590000f7
:10ddf0005f4f0000474700004343000041480000d8
:10de000032520000921200001222000062a20000b2
:10de10000a1a00007af20000e2ca00009aba000072
:10de2000f2e20000c28200008a8a00009a9200009a
:10de3000928200008a8a00008a8a00009292000082
:10de4000828200008a8a00008a8a00008a9200008a
:10de500092820000828200008a8a00009a9200006a
:10de60009292000082820000828a00009afa0000ea
:10de7000f2e20000e2c20000c282000002420000a2
:10de80004c4a000049480000484400004645000054
:10de9000505800005e4f000047530000595d0000dd
:10dea0004f4700004341000041510000514900002c
:10deb000494900004941000051590000494900000a
:10dec0004151000049490000494100004151000012
:10ded00051510000515900004949000049490000d2
:10dee000494900004141000041510000595f0000d4
:10def0004f470000474300004341000040420000fc
:10df000012120000121200001222000062a2000091
:10df10000a1a00007af20000e2ca00009aba000071
:10df2000f2e20000c2820000828200008a8a0000c1
:10df30008a8a00008a8a00008a8a00008a8a000091
:10df400082a20000a2a20000a2a20000a2a20000e1
:10df5000a282000082830000849000009090000064
:10df600090900000909000008088000099fb0000d5
:10df7000f2e20000e2c20000c282000002020000e1
:10df8000484800004848000048440000464500005a
:10df9000505800005e4f000047530000595d0000dc
:10dfa0004f47000043410000494900004949000033
:10dfb000494100004145000045450000454500003d
:10dfc0004541000041410000494900004949000025
:10dfd0004141000041c50000250500000505000085
:10dfe00005050000050500000111000099df000093
:10dff0004f470000474300004341000040400000fd
:10e00000424200004a4a00004a2a000062a2000080
:10e010000a1a00007af30000e0c8000098b8000077
:10e02000f0e00000c0880000889800009193000094
:10e03000869a0000828200008a8a00008a8a000094
:10e04000424a00004a520000525400004645000077
:10e05000505800005ecf000007130000191d00009b
:10e060000f070000030100000909000089c9000032
:10e070006159000041410000494900004d45000040
:10e080000000000000600000909800000404000000
:10e090001820000040800000c0c00000e0e0000048
:10e0a000e0e00000e0e00000e0c00000c080000010
:10e0b0004020000018040000049800009060000058
:10e0c0000000000000000000000000000000000050
:10e0d00000700000f08000000000000080f00000f0
:10e0e00070000000c0e000007030000030700000e0
:10e0f000e0c0000000f00000f000000000000000a0
:10e1000000f00000f00000007070000000f000005f
:10e11000f03000003030000070e00000c00000006f
:10e12000f0f000003030000030300000300000001f
:10e1300000000000000000000000000000000000df
:10e1400060900000980400000418000020400000c7
:10e1500080c00000c0e00000e0e00000e0e000005f
:10e16000e0e00000c0c00000804000002018000077
:10e17000040400009890000060000000000000000f
:10e1800000000000000000000000000001e20000ac
:10e19000fcfe0000ff9f00000f0f00009fff00002b
:10e1a000ffff0000ffff00009f0f00000f9f000017
:10e1b000fffe0000fce20000010000000000000083
:10e1c000000000000000000000000000000000004f
:10e1d00000000000010300003f3f000003010000b9
:10e1e000000000000f1f0000383000003038000031
:10e1f0001f0f0000000f00001f380000303000002b
:10e20000381f00000f00000000000000003f000069
:10e210003f060000060e00001f3b0000310000001a
:10e220003f3f000033330000333300003000000074
:10e2300000000000000000000000000000000000de
:10e240000000000000010000e2fc0000feff0000f2
:10e250009f0f00000f9f0000ffff0000ffff000066
:10e26000ff9f00000f0f00009fff0000fefc00005a
:10e27000e2010000000000000000000000000000bb
:10e2800000000000000000000000000080430000cb
:10e290003f7f0000ffff0000ffff0000ffff0000c6
:10e2a000e3f10000e3ff0000ffff0000ffff0000bc
:10e2b000ff7f00003f4300008000000000000000de
:10e2c000000000000000000000000000000000004e
:10e2d000000000000000000000000000000000003e
:10e2e000fcfc00000c0c00000c1c0000f8f000000e
:10e2f00000fc0000fccc0000cccc0000cc0c0000ea
:10e3000000f00000f8dc0000cccc0000dcf80000dd
:10e31000f0000000fcfc00000c0c00000c1c0000d5
:10e32000f8f0000000000000000000000000000005
:10e3300000000000000000000000000000000000dd
:10e340000000000000800000433f00007fff00004d
:10e35000ffff0000ffff0000ffe30000f1e300000b
:10e36000ffff0000ffff0000ffff00007f3f0000f5
:10e3700043800000000000000000000000000000da
:10e380000000000000060000091900002020000025
:10e3900018040000021f0000111100001f110000ee
:10e3a000111f0000111100001f110000111f0000bb
:10e3b00002040000182000002019000009060000d7
:10e3c000000000000000000000000000000000004d
:10e3d000000000000000000000000000000000003d
:10e3e0000f0f00000c0c00000c0e000007030000d3
:10e3f000000f00000f0c00000c0c00000c0c0000c3
:10e40000000f00000f00000000000000000f0000df
:10e410000f0000000f0f00000c0c00000c0e00009d
:10e4200007030000000000000000000000000000e2
:10e4300000000000000000000000000000000000dc
:10e440000609000019200000201800000402000046
:10e450001f110000111f0000111100001f1100000a
:10e46000111f0000111100001f020000041800001d
:10e470002020000019090000060000000000000034
:10e480007e080000087e0000007e00004a4a00006e
:10e49000420000007c0a00000a7c0000007e0000b0
:10e4a0004040000040020000027e00000202000026
:10e4b000007e0000080800007e000000240000002c
:10e4c000003600001c0800003e1c00000808000088
:10e4d00008080000080800000808000008080000fc
:10e4e00008080000080800002a3e00001c1c00006c
:10e4f00008000000000000007c0a00000a7c000008
:10e50000007c0000020e0000027c0000007c000085
:10e51000020e0000027c0000003c000042420000ad
:10e520003c0000002400000000000000000000008b
:10e5300000000000000000000000000000000000db
:10e540003c42000042240000003c00004242000027
:10e550003c0000003c420000423c0000007e000005
:10e5600040400000400000007e420000423c0000ad
:10e57000003c0000424200003c0000003e40000021
:10e58000704000003e0000007e040000087e000095
:10e590000024000000000000000000000000000057
:10e5a0000000000000000000000000000024000047
:10e5b0004a520000240000007e4a00004a42000047
:10e5c000003c00004242000024000000244a0000f9
:10e5d00052240000000000000000000000000000c5
:10e5e000023e0000529200001212000012120000bf
:10e5f000120200000202000002020000c22200001b
:10e600002242000002c2000022220000c2020000da
:10e61000c222000022c2000002e20000020200004a
:10e6200002020000e222000022c2000002c200003a
:10e6300022220000c2020000e202000002020000ea
:10e64000e2020000e242000082e20000024200001a
:10e6500002020000020200001a0a0000020200008a
:10e660000a1a0000020200000202000042a200009a
:10e670002242000002e20000a2a2000022020000ea
:10e68000c22200002242000002420000a22200003a
:10e6900042020000020200000202000042420000aa
:10e6a000424200004242000042420000424200005a
:10e6b00042420000221300000c0000000000000095
:10e6c0000000000000000000000000000103000046
:10e6d000061a00006282000002020000020200002e
:10e6e000407c00004a4900004848000048480000bb
:10e6f000484000004040000040400000434400000b
:10e7000044420000404300004444000043400000f5
:10e7100043440000444300004047000044440000dc
:10e7200044400000474400004443000040430000d0
:10e7300044440000434000004344000047440000bc
:10e7400043400000474000004047000040420000b6
:10e750004040000040400000585000004040000091
:10e76000505800004040000040400000424400007b
:10e77000454200004047000044440000444000007f
:10e780004344000044420000404200004445000071
:10e790004240000040400000404000004242000073
:10e7a0004242000042420000424200004242000059
:10e7b0004242000044c80000300000000000000099
:10e7c00000000000000000000000000080c0000009
:10e7d00060580000464100004040000040400000fa
:10e7e000f2fa00001a1a0000faf200000202000019
:10e7f00032fa0000fa02000002020000323a000081
:10e800001a9a0000faf20000023200003a9a000060
:10e810009afa000072020000fafa000082fa000080
:10e82000fa82000002fa0000fada0000dada0000e8
:10e830009a020000f2fa00009a9a0000ba32000030
:10e84000021a00001a1a00009afa00007a02000068
:10e850001a0a0000020200000a1a00000202000068
:10e860004f5f0000585800005f4f00004058000004
:10e87000585f00005f580000584000005c5e0000d8
:10e880005f5b000059580000404c00005c590000dc
:10e89000595f00004e40000041410000415f000010
:10e8a0005f410000404c00005c580000585f0000d1
:10e8b0004f4000004f5f0000595900005f4f0000bb
:10e8c00040400000585e000047410000404000000a
:10e8d00058500000404000005058000040400000e8
:10e8e000023e0000528200000a1a00007af2000084
:10e8f000e2ca00009aba0000f2e20000c282000000
:10e9000082820000828200008282000080800000fb
:10e91000beaa000094800000bea20000be800000dd
:10e92000bea00000a0820000be8200008080000027
:10e9300082820000828200008282000082820000c7
:10e94000828a00009afa0000f2e20000e2c20000af
:10e95000c282000012120000325200009212000027
:10e96000407c00004a410000505800005e4f00000b
:10e9700047530000595d00004f470000434100002d
:10e9800041410000010100007d4100004101000003
:10e990007d4500007d01000079150000790100002f
:10e9a0007d450000390100007d5500004501000053
:10e9b0007d45000039010000014100004141000097
:10e9c00041510000595f00004f47000047430000dd
:10e9d00043410000484800004c4a000049480000fc
:10e9e000023e0000529200001212000012120000bb
:10e9f0001212000012120000121200001212000087
:10ea00001212000012120000121200001212000076
:10ea10001212000012120000121200001212000066
:10ea20003252000092120000121200001212000076
:10ea30001212000012120000121200001212000046
:10ea40001212000012120000121200001212000036
:10ea50001212000012120000325200009212000046
:10ea6000407c00004a490000484800004848000037
:10ea70004848000048480000484800004848000056
:10ea80004848000048480000484800004848000046
:10ea90004848000048480000484800004848000036
:10eaa0004c4a00004948000048480000484800001f
:10eab0004848000048480000484800004848000016
:10eac0004848000048480000484800004848000006
:10ead00048480000484800004c4a000049480000ef
:10eae0001212000012020000122a00004a920000d6
:10eaf000100e00000204000008e6000022240000be
:10eb0000c8100000c8a80000a4c4000002c2000091
:10eb100022e4000028c4000002c20000a4a40000f7
:10eb2000c8100000c82600002244000004e40000d1
:10eb3000a8a8000028040000e224000028c8000063
:10eb400004020000e2040000080400000462000067
:10eb5000544800008202000002020000020200008d
:10eb600048480000484200004545000049080000b0
:10eb700070400000201000001027000044440000f6
:10eb8000231000002720000040470000201700004d
:10eb9000100800001067000040270000102000004f
:10eba0004720000013140000152300001027000068
:10ebb00024440000442000001724000044630000a7
:10ebc0001010000025400000404c00002a120000f8
:10ebd000040800004c43000040400000404000009a
:10ebe0001212000012120000121200001212000095
:10ebf00012120000121200002242000042420000e5
:10ec000042420000424200004242000042420000f4
:10ec100042420000424200004242000042420000e4
:10ec200042420000424200004242000042420000d4
:10ec300042420000221300000c000000000000000f
:10ec400000000000000000000000000001030000c0
:10ec5000061a0000628200000202000002020000a8
:10ec60004848000048480000484800004848000064
:10ec7000484800004848000044420000424200006a
:10ec80004242000042420000424200004242000074
:10ec90004242000042420000424200004242000064
:10eca0004242000042420000424200004242000054
:10ecb0004242000044c80000300000000000000094
:10ecc00000000000000000000000000080c0000004
:10ecd00060580000464100004040000040400000f5
:10ece0003c5200004a3c000000000000447e00004e
:10ecf0004000000044620000524c0000002400006c
:10ed0000424a0000340000000e0800007e080000a7
:10ed1000002e00004a4a0000320000003c4a000079
:10ed20004a30000000020000621a000006000000e5
:10ed3000344a00004a340000000c00005252000027
:10ed40003c00000000000000000000008000000007
:10ed50000000000000800000000000000000000033
:10ed600000000000000000000000000000030000a0
:10ed70000c300000c0000000000000000000000097
:10ed800000010000030c000018600000800000007b
:10ed90000000000000000000000000000000000073
:10eda00000000000000000000000000000c00000a3
:10edb000300c000003000000000000000000000014
:10edc00000800000c03000001806000001000000b4
:10edd0000000000000000000000000000000000033
:10ede0000c12000022440000221200000c0000005f
:10edf0000c1e00003e7c00003e1e00000c000000c7
:10ee0000023e000052920000129200009292000016
:10ee100012120000929200009212000012120000e2
:10ee20001212000012120000121200001212000052
:10ee30001212000012120000121200001212000042
:10ee40003252000092120000129200009212000052
:10ee50001212000012120000121200001212000022
:10ee60001212000012120000121200001212000012
:10ee70001212000012120000325200009212000022
:10ee8000407c00004a09000000400000617f000053
:10ee90003f1e00004c6d00007f3f00001e0c000074
:10eea0004c4c00004c4c00004c4c00004c4c000002
:10eeb0004c4c00004c4c00004c4c00004c4c0000f2
:10eec0004c4c00000d0c00000c4c00006d3f00008d
:10eed0003f1e00001e0c000040400000484800009b
:10eee00048480000484800004848000048480000e2
:10eef00048480000484800004c4a000049480000cb
:10ef0000023e000052920000120200000292000035
:10ef1000d2c2000042920000120200000212000061
:10ef20001202000002120000120200000212000091
:10ef30001202000002120000120200000212000081
:10ef40001202000002120000120200000212000071
:10ef50001202000002120000120200000212000061
:10ef60001202000002120000120200000212000051
:10ef70001202000002120000325200009212000041
:10ef8000407c00004a0100000038000077f10000da
:10ef9000e1c400008e8e00005f3800000000000019
:10efa0004840000040480000484000004048000041
:10efb0004840000040480000484000004048000031
:10efc0004840000040480000484000004048000021
:10efd0004840000040480000484000004048000011
:10efe0004840000040480000484000004048000001
:10eff00048400000404800004c4a000049480000da
:10f0000000000000003000004cb20000b64c0000d0
:10f0100030000000003000006cc200009a5c00006c
:10f0200030000000003000006c8e0000c66c000054
:10f0300030000000000000007e4a00004a4200004c
:10f04000003c000042520000340000003c4200003e
:10f0500052340000004400004a4a00003200000020
:10f06000002400000000000000000000000000007c
:10f070000000000000000000000000000000000090
:10f08000023e000052920000120200000212000034
:10f090001202000002220000128a00008a0a000008
:10f0a00082420000323a0000ba9a00008ab20000a0
:10f0b000c202000002120000120200000212000050
:10f0c00012020000021200001202000002120000f0
:10f0d00012020000021200001202000002120000e0
:10f0e00012020000021200001202000002120000d0
:10f0f00012020000021200003252000092120000c0
:10f10000407c00004a4900004840000040480000a0
:10f1100048400000404000004148000044400000da
:10f12000474f00005f58000050510000574f00004b
:10f1300043400000404800004840000040480000b4
:10f14000484000004048000048400000404800009f
:10f15000484000004048000048400000404800008f
:10f16000484000004048000048400000404800007f
:10f1700048400000404800004c4a00004948000058
:10f18000120200000212000012020000022200001f
:10f1900032920000929a00008a0a0000e272000097
:10f1a0003a3a00003a8a000012e20000e2c200008f
:10f1b000020200000212000032520000921200000f
:10f1c00012120000121200001212000012120000af
:10f1d000121200001212000022420000420200003f
:10f1e000024200004202000002420000420200000f
:10f1f00002420000420200000242000042020000ff
:10f2000048400000404800004840000040400000e6
:10f21000494d0000444400004040000043440000c9
:10f22000464e00004f4f0000484400004543000098
:10f2300040400000404800004c4a0000494800009f
:10f24000484800004848000048480000484800007e
:10f250004848000048480000444200004240000086
:10f260004042000042400000404200004240000096
:10f270004042000042400000404200004240000086
:10f2800012120000020200000222000022220000ee
:10f290003212000002c20000f2ea00008a0a0000f6
:10f2a0001afa0000f2e200000242000042020000ee
:10f2b000024200004202000002420000420200003e
:10f2c00002220000220200000222000022020000ae
:10f2d00002120000120b00000600000000000000f7
:10f2e000000000000000000000000000010300001a
:10f2f000061a000062820000020200000202000002
:10f30000484800004041000049490000494d0000c4
:10f3100045450000404300004d510000595d00008c
:10f320005c4c0000424100004042000042400000ae
:10f3300040420000424000004042000042400000c5
:10f3400040440000444000004044000044400000ad
:10f350004048000048d000006000000000000000ad
:10f3600000000000000000000000000080c000005d
:10f37000605800004641000040400000404000004e
:10f3800002220000220200000222000022020000ed
:10f3900002120000120b000006200000b0900000d6
:10f3a000909800008888000088000000c1a3000039
:10f3b00022120000f2f200007262000022c200007d
:10f3c000404400004440000040440000444000002d
:10f3d0004048000048d00000600000000404000025
:10f3e000040c0000080800000808000083c70000a3
:10f3f00047480000515c00005c5c00004e47000084
:10f40000121200001212000012120000121200006c
:10f4100012120000121200002242000042020000fc
:10f4200002420000420200000242000042020000cc
:10f4300002420000420200000242000042020000bc
:10f44000022200002202000002220000220200002c
:10f4500002120000120b0000060000000000000075
:10f460000000000000000000000000000103000098
:10f47000061a000062820000020200000202000080
:10f48000484800004848000048480000484800003c
:10f490004848000048480000444200004240000044
:10f4a0004042000042400000404200004240000054
:10f4b0004042000042400000404200004240000044
:10f4c000404400004440000040440000444000002c
:10f4d0004048000048d0000060000000000000002c
:10f4e00000000000000000000000000080c00000dc
:10f4f00060580000464100004040000040400000cd
:10f50000023e0000529200001202000002120000af
:10f51000120200000212000012020000021200009b
:10f52000120200000212000012020000021200008b
:10f53000120200000212000012020000021200007b
:10f54000120200000212000012020000021200006b
:10f55000120200000212000012020000021200005b
:10f56000120200000212000012020000021200004b
:10f57000120200000212000032520000921200003b
:10f58000407c00004a49000048400000404800001c
:10f59000484000004048000048400000404800004b
:10f5a000484000004048000048400000404800003b
:10f5b000484000004048000048400000404800002b
:10f5c000484000004048000048400000404800001b
:10f5d000484000004048000048400000404800000b
:10f5e00048400000404800004840000040480000fb
:10f5f00048400000404800004c4a000049480000d4
:10f60000023e0000529200000202000002020000ce
:10f61000e23200003a9a0000cad20000e202000082
:10f62000020200000212000012020000021200009a
:10f630001202000002100000007c00005444000090
:10f6400000380000447400000038000044740000da
:10f65000000000000212000012020000021200006e
:10f66000120200000212000012020000021200004a
:10f67000120200000212000032520000921200003a
:10f68000407c00004a490000404000004047000024
:10f690004e5e00005c580000515100004b470000d6
:10f6a00040400000404800004840000000000000ca
:10f6b0003e200000200000003e2200003e0000002e
:10f6c0003c0a00003c0000003e2200001c0000003c
:10f6d0003e2a0000220000003e2200001c00000024
:10f6e000084000004048000048400000404800003a
:10f6f00048400000404800004c4a000049480000d3
:10f70000023e0000529200001202000002120000ad
:10f71000120200000202000002020000c2220000e9
:10f720002242000002c2000022220000c2020000a9
:10f73000c222000022c2000002e200000202000019
:10f7400002020000e222000022c2000002c2000009
:10f7500022220000c2020000e202000002020000b9
:10f76000e2020000e242000082e2000002420000e9
:10f7700002020000020200001a0a00000202000059
:10f780000a1a0000020200000202000042a2000069
:10f790002242000002e20000a2a2000022020000b9
:10f7a000c22200002242000002420000a222000009
:10f7b0004202000002020000024200004202000079
:10f7c00002220000220200000222000022020000a9
:10f7d00002120000120b00000600000000000000f2
:10f7e0000000000000000000000000000103000015
:10f7f000061a0000628200000202000002020000fd
:10f80000407c00004a490000484000004048000099
:10f8100048400000404000004040000043440000d9
:10f8200044420000404300004444000043400000c4
:10f8300043440000444300004047000044440000ab
:10f84000444000004744000044430000404300009f
:10f85000444400004340000043440000474400008b
:10f860004340000047400000404700004042000085
:10f870004040000040400000585000004040000060
:10f88000505800004040000040400000424400004a
:10f89000454200004047000044440000444000004e
:10f8a0004344000044420000404200004445000040
:10f8b0004240000040400000404200004240000042
:10f8c0004044000044400000404400004440000028
:10f8d0004048000048d00000600000000000000028
:10f8e00000000000000000000000000080c00000d8
:10f8f00060580000464100004040000040400000c9
:020000040000fa
:10f900009a00fa00308f9800418f98000080eb0039
:10f910006019880000802600010020006007980020
:10f9200071079800720047000002eb0003042000fa
:10f93000000178006e009000fe00900027c30700d1
:10f9400011030700230c0700870307000000eb00ea
:10f950005f050700bd0b0700dd070700fe0a070073
:10f9600000c8b300604798000000eb00000f78006b
:10f970001c0037006e4090000080fb001a0c07004e
:10f980000000eb00100798000d0037000000eb00ae
:10f990002007980004003700000000002e009000af
:10f9a0000000e800200798002e009000e60f5000ad
:10f9b000f9ff36001e0090000000e80010079800d4
:10f9c0009e009000f0702200808f5000efff360004
:10f9d0006e4090000080fb000000d100604798005e
:10f9e0001e0fe8001e007800e60f5000e1ff360011
:10f9f000f4080700000f98000e089000e00f500078
:10fa000002003200100020006042880060002000e8
:10fa1000e70b07000000eb00000f78001b00370029
:10fa20006e4090000080fb00ef0b07000000eb0031
:10fa3000100798000d0037000000eb002007980029
:10fa400004003700000000002e0090000000e800d5
:10fa5000200798002e009000e60f5000f9ff3600b6
:10fa60001e0090000000e800100798009e00900023
:10fa7000f0702200808f5000efff36006e40900043
:10fa800000404000604798001e0fe8001e0078000c
:10fa9000e60f5000e2ff36000000eb00000f780098
:10faa0001c0037006e4090000080fb00ce0b07006a
:10fab0000000eb00100798000d0037000000eb007d
:10fac0002007980004003700000000002e0090007e
:10fad0000000e800200798002e009000e60f50007c
:10fae000f9ff36001e0090000000e80010079800a3
:10faf0009e009000f0702200808f5000efff3600d3
:10fb00006e4090000080fb000000d100604798002c
:10fb10001e0fe8001e007800e60f5000e1ff3600df
:10fb20000000eb00000f78001b0037006e409000d3
:10fb30000080fb00ac0b07000000eb0010079800f2
:10fb40000d0037000000eb0020079800040037008c
:10fb5000000000002e0090000000e8002007980040
:10fb60002e009000e60f5000f9ff36001e009000b6
:10fb70000000e800100798009e009000f07022003e
:10fb8000808f5000efff36006e4090000040400034
:10fb9000604798001e0fe8001e007800e70f500035
:10fba000e2ff36000000eb008f0b07001e089000fc
:10fbb0000000e800100f98001e089000e50f5000ac
:10fbc000020034000000eb00100f9800604280003b
:10fbd000e10f500005003a0060002000740b0700a0
:10fbe0002003200010428800030037001e08900008
:10fbf0006d0040006e0b0700220424006e00900090
:10fc0000fe00900048c20700720047000304200075
:10fc1000000178006e009000fe00900050c20700c6
:10fc20001042800000408800204280001040880080
:10fc300010002000a6040700004080000505070012
:10fc400010408000700407000040eb0004e8b7009b
:10fc50000040eb0005e8b7000040eb0006e8b70005
:10fc60000040eb0007e8b7000000eb0040408800d0
:10fc70000300370000000000010037000000000012
:10fc800004c8bf00e04f5000480032000040eb00c5
:10fc900004e8b70070408000e10f500024003a00f3
:10fca000810880000000280000806000e00f500004
:10fcb00003003a00300020003d0b07000900370028
:10fcc0006108800030088000000178001100090000
:10fcd0008280d800e20f500002003e003000200079
:10fce000330b070040408000e00f500005003a0051
:10fcf00040428000e00f500002003a0010c0b30004
:10fd00001f050700b3000700104080000000e90055
:10fd10001040880010408000e00f500002003d00bd
:10fd20000000eb00104088001040800036040700ff
:10fd300070408000e20f50000b003a00104080003d
:10fd40000000e80010408800114080002042800040
:10fd5000808f500002003400204280001040880054
:10fd6000104080002804070010408000e00f500081
:10fd70000e003a002000200055040700500020002b
:10fd80000b0b07000040eb007047980002003700a3
:10fd9000700a0700704798007e4090000004a2009f
:10fda000e04f5000faff3a00ffff370005c8bf00e0
:10fdb000e04f5000040032000040eb0005e8b700bf
:10fdc000404280000205070006c8bf00e04f500017
:10fdd0000a0032000040eb0006e8b7004040800017
:10fde000e00f500005003a0040428000e00f500054
:10fdf00002003a000040eb00e104070007c8bf0022
:10fe0000e04f50001300320040408000e30f5000ec
:10fe100007003c00404080000000e80040408800af
:10fe200073000700404080005705070007003700b7
:10fe30000000eb00404088005f0007004000200009
:10fe4000db0a070040428000e10407000040eb00ad
:10fe500007e8b7000ac8bf00e04f500004003200b6
:10fe6000200020004e0407000040eb000ae8b70025
:10fe7000200920000e0040003e0707002e50910090
:10fe8000e04f50002a00320030428000e00f500066
:10fe900010003a0040428000e00f50000d003a0090
:10fea00000408000e00f50002100340057000700a0
:10feb0001000200060408800100020003804070077
:10fec00020002000ba0a07001000200030428800fd
:10fed0001700370030428000e20f500014003a0053
:10fee00010002000b20a07004100070010002000a7
:10fef00040408800404080002305070050428000b9
:10ff00007a0907000000eb00b70a07000000eb00c9
:10ff100030428800004080000000e9000040880076
:10ff2000004080004b0407000042800040428800ef
:10ff30003e509100e04f50004eff320030428000b2
:10ff4000e10f50000300320030428000e20f500009
:10ff50004aff3a002e889000504288000000eb00d3
:10ff6000400798000000eb00500798000000eb00ed
:10ff700050079800070037004e0090000000400036
:10ff80000000e800400798005e0090000000e800d4
:10ff90005007980050428000de009000808f500093
:10ffa000f5ff35004e0090008f0a0700200020006a
:10ffb0003042880032ff37000000fa000000eb00fa
:10ffc000000888009460a80005e1a8000080fa00fd
:10ffd000000006000000fa000000eb003008880076
:10ffe00094e0a80011e1a8000080fa0000000600db
:10fff0000000fa000000eb00500888009500a800ff
:020000040001f9
:1000000013e1a8000080fa00000006000000fa00da
:100010000000eb00a00888009760a8001fe1a8007e
:100020000080fa0000000600801f78000000fa003f
:1000300040428000e00f5000060034004042800043
:100040000000e9004042880010c0b30005e8b70096
:100050000200370005e1a9009460a9008460a900ae
:100060000080fa004f00780000400600801f7800f2
:100070000000fa0010c0b30006e8b70011e1a900c3
:1000800094e0a90084e0a9000080fa004f00780005
:1000900000400600801f78000000fa0010c0b30086
:1000a00007e8b70013e1a9009500a9008500a900a1
:1000b0000080fa004f00780000400600801f7800a2
:1000c0000000fa0010c0b3000ae8b7001fe1a90061
:1000d0009760a9008760a9000080fa004f007800af
:1000e00000400600809fbe000000fa000000eb0008
:1000f000704088000040eb001ee8b7000000eb00f5
:10010000804088000000eb00904088000000eb0079
:10011000a04088000000eb00b04088000000eb0029
:10012000c04088000000eb00d04088000000eb00d9
:10013000e04088001ec8bf00e04f500025003a0094
:1001400003003700804080000000e8008040880005
:10015000511680000002200000806000e00f500077
:10016000f8ff320007003700904080000000e800f0
:100170009040880091408000c05d2000808f50003a
:1001800006003e0051168000000220000080600042
:10019000e00f5000f4ff3a000100370000000000bb
:1001a00091408000a02d2000808f500004003e0070
:1001b00091408000b02b2000808f500003003e0053
:1001c00030c0b3001ee8b7000200370010c0b30013
:1001d0001ee8b7001ec8bf00e34f500006003a00fb
:1001e0000040eb001ee8b7000000eb0080408800f4
:1001f0000000eb00904088001ec8bf00e14f500097
:100200003b003a0003003700a04080000000e800f7
:10021000a04088005116800000022000008060008d
:10022000e00f5000f8ff320009003700b0408000b6
:100230000000e800b0408800b1408000c05d2000b0
:10024000808f5000020036000000000009003700d7
:10025000511680000002200000806000e00f500076
:10026000f2ff3a0003003700c04080000000e800c1
:10027000c04088005116800000022000008060000d
:10028000e00f5000f8ff320009003700d040800036
:100290000000e800d0408800d1408000c05d200010
:1002a000808f500002003600000000000900370077
:1002b000511680000002200000806000e00f500016
:1002c000f2ff3a0003003700e04080000000e80041
:1002d000e04088005116800000022000008060008d
:1002e000e00f5000f8ff320020c0b3001ee8b70056
:1002f0001ec8bf00e24f500095003a0081408000c8
:1003000090062000808f500004003e008140800055
:10031000a0042000808f500002003e000040eb004f
:100320001ee8b7001ec8bf00e04f50007400320046
:10033000a140800090092000808f50000f003600ff
:10034000a1408000600b2000808f50000b003e0019
:10035000c140800090092000808f500007003600c7
:10036000c1408000600b2000808f500003003e00e1
:10037000100020007040880061003700a14080001c
:10038000f00d2000808f50000f003600a14080004b
:10039000c00f2000808f50000b003e00c140800045
:1003a000f00d2000808f500007003600c140800013
:1003b000c00f2000808f500003003e00200020006e
:1003c000704088004e003700a1408000901420004b
:1003d000808f50000f003600a14080006016200082
:1003e000808f50000b003e00c14080009014200020
:1003f000808f500007003600c1408000601620004a
:10040000808f500003003e003000200070408800c4
:100410003b003700a1408000f0192000808f500081
:100420000f003600a1408000c01b2000808f5000cc
:100430000b003e00c1408000f0192000808f50006a
:1004400007003600c1408000c01b2000808f500094
:1004500003003e0040002000704088002800370064
:10046000a1408000501f2000808f50000f003600f8
:10047000a140800020212000808f50000b003e0012
:10048000c1408000501f2000808f500007003600c0
:10049000c140800020212000808f500003003e00da
:1004a000500020007040880015003700a1408000f7
:1004b000b0242000808f50000f003600a140800043
:1004c00080262000808f50000b003e00c14080003d
:1004d000b0242000808f500007003600c14080000b
:1004e00080262000808f500003003e006000200026
:1004f00070408800020037000000eb007040880068
:100500000000eb00804088000000eb009040880075
:100510000000eb00804088000000eb009040880065
:100520000000eb00a04088000000eb00b040880015
:100530000000eb00c04088000000eb00d0408800c5
:100540000000eb00e04088000040eb001ee8b70030
:1005500010c0b30004e8b7008680a9000080fa004c
:100560004f00be00004006000000fa008400a90011
:100570000080fa00004006000000fa008480a90014
:100580000080fa00004006000000fa00c022a90026
:10059000c002a900c8a2a800c882a900c9c2a900b7
:1005a000c9e2a900c842a900c862a900c042a900c6
:1005b00001348000f00f2e00808060000050200089
:1005c00000807000003488006136800000fe2f003b
:1005d000008060007000b3006036880061368000e3
:1005e000f00f2e00808060000080200000807000ee
:1005f0006036880051368000f00f2e008080600049
:10060000000021000080700050368800a135800075
:1006100000fe2f0000806000a000b300a03588001d
:1006200005e1a9000421a90004c1a9002108800056
:1006300000032000008070002008880090d0230074
:100640001008880021058000f0ff280080806000ed
:100650000000220000807000200588008460a9004e
:1006600011e1a9001061a9001021a90010c1a90081
:10067000810880000003200000807000800888004e
:10068000c01b22006008880031058000f0ff2800b0
:10069000808060000000210000807000300588002c
:1006a00084e0a90013e1a9001221a90012c1a90048
:1006b00091088000000320000080700090088800ee
:1006c000e0902000700888004105800080ff2f0026
:1006d000008060000000a000400588008500a9009f
:1006e0001fe1a9001e21a9001ec1a900f108800078
:1006f0000003200000807000f0088800e00d210059
:10070000d008880081058000f0ff2800808060000c
:100710000000210000807000800588008760a9002b
:100720008220a8007105800080ff2f0000806000fb
:100730000020a000700588008680a9009680a8008f
:100740008200a9002105800080ff2f00008060004a
:100750003000b300200588008400a9009400a800a0
:100760000080fa00000006000200fa00cde2a900b5
:100770000000eb00000f78000200370000000000ce
:100780001e0fe800f0e723009e007800808f5000e5
:10079000faff34008540a9009540a900111280009d
:1007a000c0ff2f00008060000000a0001012880031
:1007b0001112800030fe2f00008060008001b30025
:1007c000101288004382a9004362a9004342a90095
:1007d00042e2a9004322a9004302a90042c2a800a4
:1007e00042a2a80041e2a800cde2a8000000eb0070
:1007f000000f780002003700000000001e0fe80024
:10080000f0e723009e007800808f5000faff34004c
:1008100010c0b3001806070000c7b3003306070076
:10082000f0c1b300f40507000040eb002706070005
:100830000040eb00c40507000040eb000506070080
:1008400050c0b300310607000040eb00a0050700d0
:100850000040eb00d30507000040eb001406070042
:1008600000c1b30039060700f3c3b300f2c3b300fd
:10087000f1c3b300f0c3b30051060700f0cbb300df
:10088000b8050700f0cbb300be05070020cdb300cc
:100890002606070080c0b300350607000040eb00c5
:1008a000c70507000040eb00cc0507000040eb0047
:1008b0000400070010c0b300ef0507000080fa0035
:1008c000000006000400fa00204798000040eb00fa
:1008d000004f7800110037001e407800ed0507003a
:1008e0000040eb006d0507000040eb00104798004a
:1008f000050037002e409000570507001e4090006d
:100900000040e800104798009e40900030c8b300b7
:1009100080cf5000f7ff36001e4fe8001e407800e1
:10092000e74f5000ecff36000080fa0000000600a0
:100930000400fa00100798000040eb00004f780018
:10094000180037001e407800d20507000040eb0079
:10095000520507000040eb00104798000d003700db
:100960001e4090008080fb001e4178000280fb004a
:100970004700dd00008040009e00900000804000a5
:1009800010407800340507001e4090000040e80049
:10099000104798001e409000e04f5000f0ff3d00cf
:1009a0001e4fe8001e407800e34f5000e5ff360080
:1009b0000080fa00000006000400fa00100798000a
:1009c0000040eb00004f78001f0037001e40e80099
:1009d000b00507000040eb00300507000040eb00c9
:1009e00010479800130037001e009000e00f5000e1
:1009f0000b0032001e4090008080fb001e417800fa
:100a00000280fb004600dd00008040009e00900058
:100a100000804000104078000f05070002003700fa
:100a20000040eb000c0507001e4090000040e8006d
:100a3000104798009e409000f0c3b30080cf500054
:100a4000e9ff36001e4fe8001e407800e14f5000dd
:100a5000deff36000080fa00000006000400fa0005
:100a6000100798000040eb00004f78001f0037008f
:100a70001e40e8008705070000c2b3000705070015
:100a80000040eb0010479800130037001e00900054
:100a9000e00f50000b0032001e4090008080fb00f1
:100aa0001e4178000280fb004600dd00008040000f
:100ab0009e0090000080400010407800e60407008f
:100ac000020037000040eb00e30407001e409000e6
:100ad0000040e800104798009e409000f0c3b3002b
:100ae00080cf5000e9ff36001e4fe8001e4078001e
:100af000e14f5000deff36000080fa0000000600e3
:100b00000400fa00100798000040eb00004f780046
:100b10001f0037001e40e8005e05070000c4b30058
:100b2000de0407000040eb00104798001300370078
:100b30001e009000e00f50000b0032001e4090009d
:100b40008080fb001e4178000280fb004600dd0033
:100b5000008040009e00900000804000104078001f
:100b6000bd040700020037000040eb00ba04070094
:100b70001e4090000040e800104798009e40900002
:100b8000f0c3b30080cf5000e9ff36001e4fe800ed
:100b90001e407800e14f5000deff36000080fa0072
:100ba000000006000400fa00100798000040eb0067
:100bb000004f78001e0037001e40e8003505070092
:100bc00000c6b300b50407000040eb0010479800d2
:100bd000130037001e009000e00f50000b003200a1
:100be0001e4090008080fb001e4178000280fb00c8
:100bf0004500dd00008040009e0090000080400025
:100c00001040780094040700020037000040eb0019
:100c1000910407001e4090000040e8001047980033
:100c20001e409000ff4f5000eaff36001e4fe800c4
:100c30001e407800e14f5000dfff36000080fa00d0
:100c4000000006000400fa00100798000040eb00c6
:100c50001005070000c1b300900407000040eb003e
:100c6000004f7800070037009e4078000180fb00ad
:100c70009e0090000080400010407800760407003d
:100c80001e4fe8001e407800fe4f5000f6ff360071
:100c90000080fa00000006000400fa001007980027
:100ca0000040eb00fb04070000c6b3007b04070014
:100cb0000040eb00004f7800070037009e407800ae
:100cc0000180fb009e0090000080400010407800f2
:100cd000610407001e4fe8001e407800ff4f5000df
:100ce000f6ff36000080fa00000006000400fa005b
:100cf0001007980030c0b300e60407000040eb0086
:100d0000660407000040eb00004f78000700370042
:100d10009e4078000180fb009e0090000080400013
:100d2000104078004c0407001e4fe80070c3b30069
:100d30009e40780080cf5000f5ff36000080fa001a
:100d4000000006000400fa001007980030c0b3004d
:100d5000d004070000c3b300500407000040eb00bc
:100d6000004f78000d0037001e009000e00f50008b
:100d7000070032009e4078000180fb009e0090003a
:100d80000080400010407800330407000200370064
:100d90000040eb00300407001e4fe800f0c4b30031
:100da0009e40780080cf5000efff36000080fa00b0
:100db000000006000400fa001007980030c0b300dd
:100dc000b404070000c6b300340407000040eb0081
:100dd000004f7800070037009e4078000180fb003c
:100de0009e00900000804000104078001a04070028
:100df0001e4fe8001e407800ff4f5000f6ff3600ff
:100e00000080fa00000006000600fa0020079800a3
:100e10000040eb009f04070020c3b3001f0407003d
:100e20000000eb00100798000000eb00000f7800b6
:100e3000210037009e00780067806000e00f5000be
:100e4000070032009e01780067806100e50f5000c6
:100e500003003e001e0090000000e800100798000c
:100e60001e007800e70060002e01900020002000a6
:100e700080017800811f7800110009000301d8006b
:100e800001017800cf007800000178001e0090007a
:100e9000800f51000200390080002000010037005f
:100ea0000000eb0000804000016f2f0061407800df
:100eb000e90307001e0fe800700220009e00780082
:100ec000808f5000dbff36000080fa000000060033
:100ed0000200fa00000f78001e007800e00f5000ba
:100ee00003003a0000c02e0091fe07002a003700e0
:100ef0001e007800e10f500022003a000040eb0095
:100f000070fe070060428000e00f50000d003a00c4
:100f100000242f004bff0700006b2f005eff07002f
:100f2000004f2f00a4fe0700005f2f00f4fe070013
:100f300000262f006dff0700006d2f009dff0700aa
:100f40001500370060428000e10f500012003a00a7
:100f500000242f003bff0700006b2f004eff07000f
:100f600000a82f0094fe070000a02f00e4fe070059
:100f700000802f005dff0700006d2f008dff070030
:100f8000050037001e007800e20f500002003a0012
:100f900000042f0066fe07000080fa000000060033
:100fa0000200fa00000f78001e007800e00f5000e9
:100fb0000b003a0060428000e00f500002003a004f
:100fc000004f2f007cfe070060428000e10f5000c0
:100fd0001e003a0000a82f0077fe07001b00370014
:100fe0001e007800e10f50000b003a0060428000c4
:100ff000e00f500002003a0000702f006efe070064
:1010000060428000e10f500010003a0000782f008d
:1010100069fe07000d0037001e007800e20f500047
:101020000a003a0060428000e00f500002003a00df
:1010300000472f0060fe070060428000e10f500073
:1010400002003a0000b02f005bfe07000080fa00ab
:10105000000006000800fa003007980030c0b30016
:101060000c04070090c3b3008c0307000000eb00e2
:10107000000f780011003700be009000a000200093
:1010800000017800110009008200d80020079800b4
:101090002e009000e00f50000c0034002e00900055
:1010a0006500b900000078001e00400001672f00b5
:1010b00061407800680307001e0fe8001e007800fa
:1010c000e30f5000ecff3600010037000000000085
:1010d0000040eb00600307000000eb0010079800e1
:1010e00013003700be009000a0002000000178002f
:1010f000110009008200d8008000fd002007980040
:101100002e0090006500b900000078008000780093
:101110001e0090000080400001672f0061407800b1
:101120004d0307001e0090000000e8001007980023
:101130001e009000e30f5000eaff36003e009000d2
:1011400069004000f20f50000b003e000000eb0071
:1011500010079800050037000040eb003e03070031
:101160001e0090000000e800100798001e0090008c
:10117000e30f5000f8ff36000080fa000000060080
:101180000200fa00004f78001e407800e04f500047
:101190000300320000572f0059fe07000a003700f5
:1011a00060428000e00f500002003a00005f2f0014
:1011b00053fe070060428000e10f500002003a0039
:1011c00000a02f004efe07000080fa00000006007d
:1011d0000800fa00300798003e009000e00f500031
:1011e0005800340000428000be009000808f500004
:1011f0002b003a000000eb00000f780025003700bc
:101200001e007800004078000040e800a1030700bd
:101210000040eb00210307000000eb0010079800de
:101220001700370060428000e00f500007003a00ce
:101230001e007800c700dd001e0090000080400006
:10124000012f2f00614078000303070060428000f7
:10125000e10f500007003a001e007800c700dd00d3
:101260001e0090000080400001b82f00614078000f
:10127000f90207001e0090000000e8001007980027
:101280009e009000f0072000808f5000e5ff3400a2
:101290001e0fe8001e007800e10f5000d8ff340058
:1012a000be009000a000200000017800110009009d
:1012b0008200d8008000fd00200798000000eb00ad
:1012c000000f78001b0037001e00780000407800f7
:1012d0000040e8006f030700c0c3b300ef0207003f
:1012e0000000eb00100798000e0037002e00900061
:1012f0006700b900800078001e0078004600dd001d
:10130000808040001e00900000804000013f2f00c0
:1013100061407800d00207001e0090000000e80045
:10132000100798001e009000e50f5000efff3400fa
:101330001e0fe8001e007800e10f5000e2ff3400ad
:101340000f00370060428000e00f500005003a00b7
:10135000004f2f0098fd0700005f2f00e8fd0700f9
:101360000700370060428000e10f500004003a009f
:1013700000a82f0090fd070000a02f00e0fd07004f
:101380000080fa00000006000200fa00000f78005a
:1013900060428000e00f500026003a001e007800f6
:1013a000e00f500005003a00004f2f0082fd0700bb
:1013b000005f2f00d2fd0700460037001e007800b6
:1013c000e10f500003003a0000e82e007afd07000c
:1013d000400037001e007800e20f500005003a0080
:1013e000004f2f0074fd070000f02e009bfd07004a
:1013f000380037001e007800e30f500005003a0067
:10140000004f2f006cfd070000f82e00bcfd070008
:10141000300037001e007800e40f50002d003a0025
:10142000005f2f00b6fd070000002f00ddfd070064
:101430002800370060428000e10f500025003a008c
:101440001e007800e00f500005003a0000a82f00b1
:1014500059fd070000a02f00a9fd07001d0037005f
:101460001e007800e10f500003003a0000842f00b6
:1014700051fd0700170037001e007800e20f5000f2
:1014800005003a0000a82f004bfd0700008c2f003c
:1014900072fd07000f0037001e007800e30f5000b8
:1014a00005003a0000a82f0043fd070000942f001c
:1014b00093fd0700070037001e007800e40f50007e
:1014c00004003a0000a02f008dfd0700009c2f00b3
:1014d000b4fd07000080fa00000006000400fa00d6
:1014e000100798000a0037000000eb00000f78009a
:1014f000010037001e0fe8001e007800e90f5000c1
:10150000fcff36001e0090000000e9001007980064
:101510001e009000e00f5000f3ff3a000080fa0038
:10152000000006000200fa000000eb00000f780047
:101530000642a8000600370010002000e7ff070061
:101540001e0fe8001e007800f40f500005003c005c
:101550003010800064006000e00f5000f6ff3a0099
:1015600001003700000000000662a9008620a900e3
:1015700008e2a90041108000f0bf2f000080600049
:1015800040108800a0002000d4ff07000080fa006f
:10159000000006000200fa0030022000201088003f
:1015a00007e2a9000722a8008620a90007e2a800f8
:1015b00000108000000f7800daff07000080fa00ba
:1015c000000006000200fa000000eb00000f7800a7
:1015d00006a2a900a0002000c0ff07000602a80084
:1015e000000000000600370010002000bbff0700cd
:1015f0001e0fe8001e007800f40f500005003c00ac
:101600003010800061006000e00f5000f6ff3a00eb
:10161000010037000000000020002000afff07009d
:101620000080fa00000006000200fa000000eb0053
:10163000000f78000622a800000000000600370016
:1016400010002000a5ff07001e0fe8001e00780014
:10165000f40f500005003c00301080006200600074
:10166000e00f5000f6ff3a000100370000000000d4
:101670002000200099ff07000080fa00000006000b
:101680000400fa00100798000000000040108000dd
:1016900061006000e00f5000fcff3a008620a900c6
:1016a0001e009000101088000000eb00000f780072
:1016b0000800370041108000000024000080600016
:1016c000e00f5000080032001000200083ff0700e8
:1016d0001e0fe800301f20009e007800808f500011
:1016e000f4ff34000100370000000000401f20001c
:1016f0009e007800808f500002003a0010c0b300b6
:101700000b003700411080000000280000806000be
:10171000e00f50000300320082ff070010c0b3004a
:1017200003003700200020006cff07000040eb00a2
:101730000080fa00000006000400fa000000eb0040
:10174000000f78000040eb00204798000662a800d8
:10175000050037001e0fe800007d20009e00780085
:10176000808f500005003c00401080006200600047
:10177000e00f5000f7ff32000100370000000000ca
:1017800000108000204798002e4090000080fa0052
:10179000000006000400fa000000eb00000f7800d3
:1017a0000040eb00204798000662a80005003700c3
:1017b0001e0fe800007d20009e007800808f500002
:1017c00005003c004010800062006000e00f500007
:1017d000f7ff320001003700000000000010800019
:1017e000204798000682a800a00020003bff0700c9
:1017f0002e4090000080fa00000006000400fa006d
:10180000004f780011479800224798006dff0700ad
:101810001e00fb009aff07001e4090000000fb0026
:1018200097ff07002e4090000000fb0094ff070088
:101830003cff07000080fa00000006000400fa00e8
:1018400020479800314798005eff07002e40900027
:101850000000fb008aff07003e4090000000fb00f4
:1018600087ff0700a00020001cff07006eff070095
:101870002e4090000004a0000000fb0080ff070045
:10188000adff0700004f780026ff07001e407800dc
:101890000080fa00000006000200fa00000f780045
:1018a0000200370000000000000000001e00ea00f7
:1018b0001e0070004f00de00004078001e0fe9009f
:1018c000e04f5000f7ff3a000080fa0000000600e9
:1018d0000200fa002fff07000000eb00000f780065
:1018e00002003700000000001e0fe800f003210096
:1018f0009e007800808f5000faff360040cbb30086
:101900003fe8b7003fc8bf0012c0b300b1c2b30088
:10191000baff07003fc8bf0012c0b300c1c2b30086
:10192000b6ff07003fc8bf000041eb00d1c2b300c3
:10193000b2ff07003fc8bf000041eb00e1c2b300a7
:10194000aeff07003fc8bf0012c0b300f1c2b30032
:10195000aaff07003fc8bf0012c0b30001c3b30015
:10196000a6ff07003fc8bf0000c1eb0011c3b300d2
:10197000a2ff07003fc8bf0022c0b30021c3b300cd
:101980009eff07003fc8bf00f2c0b30011c4b30000
:101990009aff07003fc8bf00a2c0b30021c4b30034
:1019a00096ff07003fc8bf00f2c0b30031c4b300c8
:1019b00092ff07003fc8bf00a2c0b30041c4b300fc
:1019c0008eff07003fc8bf00f2c0b30051c4b30090
:1019d0008aff07003fc8bf00a2c0b30061c4b300c4
:1019e00086ff07003fc8bf00f2c0b30071c4b30058
:1019f00082ff07003fc8bf00a2c0b30081c4b3008c
:101a00007eff07003fc8bf00f2c0b30091c4b3001f
:101a10007aff07003fc8bf00a2c0b300a1c4b30053
:101a200076ff07003fc8bf00f2c0b300b1c4b300e7
:101a300072ff07003fc8bf00a2c0b300c1c4b3001b
:101a40006eff07003fc8bf00f2c0b300d1c4b300af
:101a50006aff07003fc8bf00a2c0b300e1c4b300e3
:101a600066ff07003fc8bf00f2c0b300f1c4b30077
:101a700062ff07003fc8bf00a2c0b30001c5b300aa
:101a80005eff07003fc8bf00f2c0b30011c5b3003e
:101a90005aff07003fc8bf00a2c0b30021c5b30072
:101aa00056ff07003fc8bf00f2c0b30031c5b30006
:101ab00052ff07003fc8bf00a2c0b30041c5b3003a
:101ac0004eff07003fc8bf00f2c0b30051c5b300ce
:101ad0004aff07003fc8bf00a2c0b30061c5b30002
:101ae00046ff07003fc8bf00f2c0b30071c5b30096
:101af00042ff07003fc8bf00a2c0b30081c5b300ca
:101b00003eff07003fc8bf0042c0b300d1c5b300cd
:101b10003aff07003fc8bf0092c0b300e1c5b30061
:101b200036ff07003fc8bf00b2c0b300b1c7b30063
:101b300032ff07003fc8bf0092ccb300d1c7b3004b
:101b40002eff07003fc8bf0022c8b300e1c7b300a3
:101b50002aff07003fc8bf0052cbb300f1c7b30054
:101b600026ff07000040eb003ee8b7000080fa00c7
:101b7000000006000a00fa00881f780000047800c0
:101b80000040eb00604798000040eb007047980071
:101b90003fc8bf008040eb0028ff070020479800a7
:101ba0003fc8bf0011c0b30024ff070030479800b2
:101bb0003e4090000080fb006f006000c800dd0028
:101bc0002e4090000080fb000080700020079800ed
:101bd000814280002e009000808f50002e00320045
:101be0002e009000e00f50002b003200c042800019
:101bf000d0428800b0428000c0428800a0428000ed
:101c0000b042880090428000a0428800804280005c
:101c1000904288002e009000804288008042800020
:101c2000e10f50001c003a009142800000082000a3
:101c3000808f500018003a00a0428000e80f50004a
:101c400015003a0060428000e00f500012003a0098
:101c50001000200060428800200020000042880020
:101c600020032000104288001042800000408800bd
:101c7000600020004e0307001000200094fc0700c5
:101c800000408000f3fc0700104080005efc07006d
:101c9000e00d210070088800ae00900000102000c8
:101ca00000806000e00f5000050032000040eb00b3
:101cb0004ee8b70010c0b300604798003a00370004
:101cc000ae009000f00f200000806000e00f500098
:101cd00033003200ae009000000820000080600059
:101ce000e00f50000700320010c0b30070479800aa
:101cf00010002000400798002e009000004078005f
:101d00004ee8b7000000eb00000f7800200037001d
:101d1000010820001e0078000088de0080007800a6
:101d20002e00900000806000e00f5000170032008d
:101d30004ec8bf008000fb001e00e8000208200023
:101d40000090de0000806000e00f500008003a00c4
:101d50004ec8bf008000fb001e00e9000208200002
:101d60000090de0000806000e00f500007003200ad
:101d700010c0b300704798001e00e80040079800ac
:101d80002e009000004078004ee8b7001e0fe800db
:101d90001e007800e70f5000ddff3400020037001e
:101da0000040eb004ee8b7003e009000ce009000ef
:101db000008cbe00080078004f0478000080fa0014
:101dc000000006000400fa003fc8bf008040eb009e
:101dd0009afe0700004f78003fc8bf0011c0b30053
:101de00096fe0700104798001e4090000080fb0000
:101df0006f006000c800dd001e4178000280fb001b
:101e000000807000100798001e0090000080fa000b
:101e1000000006000400fa00204798002e409000c1
:101e20000080fb0040128800cdc2a9000000eb003a
:101e3000000f780002003700000000001e0fe800cd
:101e4000700220009e007800808f5000faff34005e
:101e50000080fa00000006000400fa002047980005
:101e60002e4090000080fb0040128800cdc2a800e8
:101e70000000eb00000f78000200370000000000b7
:101e80001e0fe800700220009e007800808f500036
:101e9000faff34000080fa00000006000200fa0099
:101ea000004f78009e4078006fc06000d9ff0700a7
:101eb0009e4078000180fb004400de000040780076
:101ec00070404000d3ff07000080fa0000000600c9
:101ed0000200fa00004f780000c2b300cdff0700f7
:101ee0001e407800cbff07000080fa0000000600cb
:101ef0000200fa00004f78001147980010c2b300aa
:101f0000c4ff07001e407800c2ff07001e4090007b
:101f1000c0ff07000080fa00000006000200fa007f
:101f2000004f78001147980020c2b300b9ff0700a6
:101f30001e407800b7ff07001e409000b5ff070065
:101f40000080fa00000006000200fa00004f78004e
:101f500000c4b3001e407000aeff07000080fa000e
:101f6000000006000200fa00004f780010c8b3001d
:101f7000a8ff07001e407800a6ff07000080fa00b7
:101f8000000006000200fa00004f780020c8b300ed
:101f9000a0ff07001e4078009eff07000080fa00a7
:101fa000000006000200fa00004f780000cab300eb
:101fb0001e40700097ff07000080fa000000060036
:101fc0000200fa00004f780040cab3001e407000c3
:101fd00090ff07000080fa00000006000200fa00ef
:101fe000004f780060cab3001e40700089ff0700f0
:101ff0000080fa00000006000200fa00004f78009e
:1020000080cab30083ff07001e40780081ff0700ed
:102010000080fa00000006000200fa00004f78007d
:1020200011479800b0cab3007aff07000040eb00e8
:1020300078ff07001e40780076ff07001e409000e2
:1020400074ff0700c0cab30072ff07000080fa00e7
:10205000000006000200fa00004f7800d0cab3006a
:102060006cff0700e0c8b3001e40700069ff070066
:102070000080fa00000006000200fa00004f78001d
:10208000e0cab3001e40700062ff07000080fa0043
:10209000000006000200fa00004f780000cbb300f9
:1020a0001e4070005bff07000080fa000000060081
:1020b0000200fa00004f780000ccb3001e40700010
:1020c00054ff07000080fa00000006000200fa003a
:1020d000004f780030cdb3004eff07001e4078005f
:1020e0004cff07000080fa00000006000200fa0022
:1020f000004f780050cdb30046ff07001e40780027
:1021000044ff07000080fa00000006000200fa0009
:10211000004f780080cdb3003eff07001e407800de
:102120003cff07000080fa00000006000200fa00f1
:10213000004f780090cdb30036ff07001e407800b6
:1021400034ff07000080fa00000006000200fa00d9
:10215000004f7800a0cdb3002eff07001e4078008e
:102160000014a0002bff07000080fa00000006000a
:102170000200fa00004f7800b0cdb30025ff070041
:102180001e40780023ff07000080fa0000000600d0
:102190000200fa00004f780000ceb3001e4070002d
:1021a0001cff07000080fa00000006000000fa0093
:1021b00030ceb30017ff07000080fa0000000600d1
:1021c0000400fa00004f7800114798002247980059
:1021d0003347980010c9b3000eff07001e40780077
:1021e0000cff07001e4090000aff07002e409000e1
:1021f00008ff07003e40900006ff07000080fa003d
:10220000000006000000fa0020c9b30001ff07002b
:102210000040eb00fffe070050c5b300fdfe0700c5
:10222000a0cab300fbfe070000c0eb00f9fe0700e8
:1022300030c9b300f7fe070000c0eb00f5fe070051
:1022400000c0eb00f3fe070000c0eb00f1fe07004a
:1022500000c0eb00effe07000080fa00000006005f
:102260000400fa00204798000000eb00000f7800ff
:102270003e003700ca82a8000000000000000000f5
:10228000000000000000000000000000000000004e
:10229000000000000000000000000000000000003e
:1022a000000000000000000000000000000000002e
:1022b000000000000000000000000000000000001e
:1022c000000000000000000000000000000000000e
:1022d00000000000000000000000000000000000fe
:1022e00000000000000000000000000000000000ee
:1022f000ca82a900000000000000000000000000e9
:1023000000000000000000000000000000000000cd
:1023100000000000000000000000000000000000bd
:1023200000000000000000000000000000000000ad
:10233000000000000000000000000000000000009d
:10234000000000000000000000000000000000008d
:10235000000000000000000000000000000000007d
:1023600000000000000000001e0fe8002e4090005a
:102370000080fb009e0f5000beff3d000080fa0071
:10238000000006000400fa00204798000000eb005f
:10239000000f78003e003700ca82a800000000004d
:1023a000000000000000000000000000000000002d
:1023b000000000000000000000000000000000001d
:1023c000000000000000000000000000000000000d
:1023d00000000000000000000000000000000000fd
:1023e00000000000000000000000000000000000ed
:1023f00000000000000000000000000000000000dd
:1024000000000000000000000000000000000000cc
:1024100000000000ca82a8000000000000000000c8
:1024200000000000000000000000000000000000ac
:10243000000000000000000000000000000000009c
:10244000000000000000000000000000000000008c
:10245000000000000000000000000000000000007c
:10246000000000000000000000000000000000006c
:10247000000000000000000000000000000000005c
:102480000000000000000000000000001e0fe80037
:102490002e4090000080fb009e0f5000beff3d00cc
:1024a0000080fa00000006000000fa00a0c0b3009f
:1024b0006bff0700c0c8b300b2ff070040c1b30004
:1024c00067ff070020c8b300aeff070040c1b3009c
:1024d00063ff070020c8b300aaff070040c6b3008f
:1024e0005fff07000080fa00000006000600fa0007
:1024f000200798009680a9000000eb00000f7800ec
:102500000d0037000000eb001007980004003700b2
:10251000000000001e0090000000e8001007980076
:102520009e00900070702000808f5000f8ff3400f3
:10253000ddff07001e0fe8002e0090006300b900c9
:10254000000078009e0f5000eeff3c009680a8002f
:102550000080fa00000006000000fa000120800060
:10256000f08f2f008080600000402000008070000d
:10257000002088000000000001208000000e2000e4
:102580008080600000082000808f5000faff3a0031
:102590008120800000fc2f00008060003000b3002c
:1025a0008020880081208000f0f32f0000806000f0
:1025b0008020880013c4a90012c4a80012e4a80057
:1025c0009120800070fc2f00008060009020880027
:1025d0009120800080ff2f00008060003000b30059
:1025e0009020880091208000f08f2f008080600074
:1025f0000010200000807000902088000004a800d7
:10260000002280007f006000002288004064a90052
:102610000121800000ff2f00008060000000a0006a
:1026200000218800c1208000c0ff2f0000806000d2
:10263000c020880080218000ff00600000002e0084
:1026400000807000802188003064a8001000200005
:10265000a02088000004a90001208000f08f2f0036
:102660000080600000208800000000000120800041
:10267000000e200000806000e00f5000fbff3a00d9
:1026800081c3a90081a3a800011c8000f0fc2f00d9
:10269000808060000002200000807000001c880024
:1026a000011c8000c0ff2f0000806000001c88001b
:1026b00060042000101c880070002000501c88005e
:1026c00020442000401c880000602000201c88005e
:1026d00081e3a8008dc3a9008da3a900611c80001f
:1026e000f0fc2f008080600000022000008070005d
:1026f000601c8800611c8000c0ff2f00008060000b
:10270000601c880020022000701c880070002000df
:10271000b01c880000442000a01c8800006020003d
:10272000801c88008de3a80030e4a80031e4a900f3
:10273000802180003000b30080218800812180004a
:102740000030200000807000802188000080fa00a6
:10275000000006000000fa000042eb008041eb00a0
:102760000041eb008040eb000040eb00030007005d
:1027700010c0b3000080fa00000006000600fa0056
:10278000004f78001147980022479800334798007f
:10279000444798009e4078000180fb004500dd0022
:1027a000003089000000eb0010308900400020005c
:1027b000203089002e4090000080fb00c800dd0022
:1027c0001e4090000080fb000080700030308900c7
:1027d0004e4090000080fb00c800dd003e409000ad
:1027e0000080fb000080700040308900d0bc2a00cf
:1027f00050308900d0bc2a00603089003064a800c5
:102800000080fa00000006000200fa000080eb00e1
:10281000000f78000021800061006000e00f500090
:10282000070032000004a80000218000004078006a
:102830006f4060000080fb00000f78000004a900da
:102840001e0078000080fa00000006000200fa0076
:10285000cc42a800cc62a800c442a8000000eb0053
:10286000000f780002003700000000001e0fe80093
:10287000807f24009e007800808f5000faff340093
:10288000c442a9000000eb00000f780002003700ee
:10289000000000001e0fe800807f24009e007800ea
:1028a000808f5000faff3400c442a8000080fa0074
:1028b000000006000600fa0020079800cc42a8009d
:1028c000cc42a9000000eb00000f780002003700a6
:1028d000000000001e0fe80010ff23009e0078009b
:1028e000808f5000faff34000000eb00000f7800ea
:1028f00029003700cc42a900f10020001e805000c2
:10290000ae0090000088de0000407800614060006a
:1029100061406000614060000080fb006100600079
:102920004300dd006216800071ff2f00810061000e
:1029300000807000601688000000eb00100798000f
:1029400004003700000000001e0090000000e800b6
:10295000100798009e009000f0162000808f500015
:10296000f8ff3400cc42a8000000eb0010079800ec
:1029700004003700000000001e0090000000e80086
:10298000100798009e009000f0162000808f5000e5
:10299000f8ff34001e0fe8001e007800ef0f500013
:1029a000d4ff3400cc62a8000080fa0000000600ca
:1029b0000200fa00000f7800604280006600b90053
:1029c000000078001e004000baff07000080fa00f7
:1029d000000006000000fa000000eb000200070003
:1029e0000080fa00000006000400fa0010079800ba
:1029f0000000eb00000f780012003700c402a900ad
:102a00009e0090001e0078000088de0000407800e4
:102a10006140600061406000614060000080fb0038
:102a2000610060000000400022168000d1ff2f00ee
:102a3000810061000080700020168800c402a80098
:102a40001e0fe8001e007800e70f5000ebff340077
:082a50000080fa0000000600fe
:020000040000fa
:020000040001f9
:102a5800400800000e0000000200000004001e00f4
:102a6800003200000000000000000000000000002c
:102a780000080000200000000000000020080000fe
:102a880020000000000000004e0800000c000000bc
:102a9800020000000000000000000000000000002c
:102aa80000000000002600000002000000000000f6
:042ab800000000001a
:020000040000fa
:0200000401f009
:04000000ce0000002e
:020000040000fa
:0200000401f009
:04000400ce0000002a
:020000040000fa
:0200000401f009
:0400080007000000ed
:020000040000fa
:0200000401f009
:04000c0000000000f0
:020000040000fa
:0200000401f009
:04001000e300000009
:020000040000fa
:0200000401f009
:040014005f00000089
:020000040000fa
:0200000401f009
:04001800f7000000ed
:020000040000fa
:0200000401f009
:04001c00dfff000002
:00000001FF
