:020000040000fa
:080000000002040000000000f2
:020000040000fa
:1000080090020000900200009002000090020000a0
:100018009002000090020000900200009002000090
:100028003e1d00009002000090020000601a0000cf
:10003800461d00009002000090020000821a000095
:10004800961a000090020000900200009002000042
:100058009002000090020000900200009002000050
:100068009002000090020000900200009002000040
:10007800aa1a0000900200009002000090020000fe
:100088009002000090020000900200009002000020
:100098009002000090020000900200009002000010
:1000a8009002000090020000900200009002000000
:1000b80090020000900200009002000090020000f0
:1000c80090020000900200009002000090020000e0
:1000d80090020000900200009002000090020000d0
:1000e80090020000900200009002000090020000c0
:1000f80090020000900200009002000090020000b0
:10010800900200009002000090020000900200009f
:10011800900200009002000090020000900200008f
:10012800900200009002000090020000900200007f
:10013800900200009002000090020000900200006f
:10014800900200009002000090020000900200005f
:10015800900200009002000090020000900200004f
:10016800900200009002000090020000900200003f
:10017800900200009002000090020000900200002f
:10018800900200009002000090020000900200001f
:10019800900200009002000090020000900200000f
:1001a80090020000900200009002000090020000ff
:1001b80090020000900200009002000090020000ef
:1001c80090020000900200009002000090020000df
:1001d80090020000900200009002000090020000cf
:1001e80090020000900200009002000090020000bf
:0801f8009002000090020000db
:020000040000fa
:10020800900200009002000090020000900200009e
:10021800900200009002000090020000900200008e
:100228003e1d00009002000090020000601a0000cd
:10023800461d00009002000090020000821a000093
:10024800961a000090020000900200009002000040
:10025800900200009002000090020000900200004e
:10026800900200009002000090020000900200003e
:10027800aa1a0000900200009002000090020000fc
:10028800900200009002000090020000900200001e
:10029800900200009002000090020000900200000e
:1002a80090020000900200009002000090020000fe
:1002b80090020000900200009002000090020000ee
:1002c80090020000900200009002000090020000de
:1002d80090020000900200009002000090020000ce
:1002e80090020000900200009002000090020000be
:1002f80090020000900200009002000090020000ae
:10030800900200009002000090020000900200009d
:10031800900200009002000090020000900200008d
:10032800900200009002000090020000900200007d
:10033800900200009002000090020000900200006d
:10034800900200009002000090020000900200005d
:10035800900200009002000090020000900200004d
:10036800900200009002000090020000900200003d
:10037800900200009002000090020000900200002d
:10038800900200009002000090020000900200001d
:10039800900200009002000090020000900200000d
:1003a80090020000900200009002000090020000fd
:1003b80090020000900200009002000090020000ed
:1003c80090020000900200009002000090020000dd
:1003d80090020000900200009002000090020000cd
:1003e80090020000900200009002000090020000bd
:0803f8009002000090020000d9
:020000040000fa
:10040000af9320000e5f22000e0188000000000064
:100410000c00070000d3220001002000110007009b
:10042000000020000000e000020032000000020096
:10043000000000005c170200000000000040da002d
:100440000000fe004440a900a08720000000e0005a
:100450000300320000002000a00188004440a800f2
:100460000000060091018800800078000000eb0089
:1004700015003700e280400032a0b4009101ba00bc
:10048000e280400032a0b4009102ba00e280400055
:1004900032a0b4000002eb00472bde00f507b200eb
:1004a000602ce10004003a000059eb008301e900f0
:1004b000fdff3e00040037006128e100010032002a
:1004c0000082eb00040007001101ba000200e00006
:1004d000e8ff3a00000006003159ba008301e90044
:1004e0000c0032002159ba008301e90008003200f3
:1004f0000400e00003003a00e280400032a0b400b3
:10050000f5ff370011d9ba008301e900faff3a007c
:100510008100e800e180400032a0b4000000060045
:100520000040da000000fe00010278000100370000
:1005300003007800809fbe00110009000282d800ed
:10054000000278004f00be008001e800e00f52007a
:10055000f7ff3a0084497800000278001100090092
:100560008280d8000002fd008101780084007800bc
:10057000e9cf510001003400e7c1410005c3b300d9
:1005800005d04100e00f5200f3ff3a0000000600e2
:10059000881f780000047800e08f500005003d00bf
:1005a00088017800d0c2b300805978008100ea0049
:1005b000010037008801780003007800daff0700a7
:1005c000080078004f047800000006000c00fa00d4
:1005d000889fbe0000047800f0ff2700d0bf9f0076
:1005e0008004eb0099bf9f0088bf9f00a8bf9f00b9
:1005f000200c2000b0bf9f0078815700cfb097003b
:1006000070805700070007000fb89700094878006e
:100610008fb89700088050004f04be000080fa0099
:10062000000006000f04b000889fbe008a9fbe0035
:100630008c9fbe008e1f7800c0b79f00d1af9f0077
:10064000a2b79f000000eb00c0033700dfa89700af
:100650008100e800d1af9f0052c2b30082cf5200a8
:1006600006003a000007eb0006c3b30003c2b30064
:10067000b1c2b3005fa8970014003700cfb1970054
:10068000330190000204b20005003200030278003a
:100690009401780085497800030ae80007003700d4
:1006a0000501fb00cfb0970002007800b4030700fb
:1006b00000017800e10f4100a5033200bfb29700ae
:1006c0008502e800b5b79f00a1033700904278008b
:1006d000d7c2b30087cf52000b0032000001e80000
:1006e00087cf520005003c0083cf52000900320042
:1006f00081cf52000e003a000800370086cf52002a
:100700000b003a00070037000e30a0000000e800a0
:10071000eeff37000e00a000030037000e10a0000f
:10072000010037000e20a00002007800e7ff37002c
:10073000d0af9f00e2016700010032000e00a1006f
:10074000e8016700010032000e20a1008501fb00d6
:100750000303b100e98f51000d003e0000002000ae
:100760005fa997006a00b9000003b1009200fb0086
:1007700001004000d200fb000103b100e98f5000ee
:10078000f8ff3600c0af9f00d2af9f000c003700cb
:100790008004eb00c9af9f00a3c2b30083cf520017
:1007a00007003a002fb59700ca057800aab79f0046
:1007b000cbaf9f005fa897000000e800d0af9f007c
:1007c0008000eb00e1af9f00e3c2b3005fa9970098
:1007d00092cf11001e003a000ee0a000e4c15100cb
:1007e0000201e800d2af9f0012427800834f52000e
:1007f0000d003a00afb2970045037800a5b79f00ff
:10080000e6af9f00820378008703e80007017800c5
:10081000100037006a00b9000003b1000200400078
:100820008301e800020037006fa89700dfa9970056
:100830001301fb0001fd2f0082804000e98f500072
:10084000f4ff3600e0af9f0003017800010037009d
:100850005fa9970032427800c4779f00c8c6b300f2
:10086000884f520023003200d2af9f000f003c009f
:1008700035c6b300854f5200a700320004003c008b
:10088000e04f52003703320083c5b3000f0037003a
:1008900043c6b300834f5200c4003200e5c141009b
:1008a000834f5200ba003a00c000370035c7b3008a
:1008b000854f52001a00320007003c00f3c6b30017
:1008c000834f5200110032008341e800834f5200f1
:1008d000af003a000f00370053c7b300834f5200f8
:1008e000b1003200e3c14100834f5200a8003a003a
:1008f00009003700700067000100280001003a007d
:100900000101200001077700d2ff37000e60a00030
:10091000a60037000e50a0000e70a000a300370004
:10092000afb49700c9027800a9b79f00d5b79f0060
:10093000e08f520002003a004b902000dbb79f008e
:100940000000eb00e0b79f005fb09700efb09700aa
:100950007fb197008fb99700010037008500e8004c
:100960008102780061427800e04f5200fbff3a00bc
:10097000d0b79f00e1b79f00f2b79f0083bf9f00f1
:10098000efaa9700e08f5200050032006fb3970086
:10099000868f52000200310085037800e7b79f0080
:1009a000efb297000006eb004fac9700850f5400a4
:1009b0000100360005065400680767002f003a0062
:1009c0008c01780008c2b300cfb697001000370042
:1009d0003d0090000004b200040032001d007800c9
:1009e00008487800800ee800050037008d00780088
:1009f00000022000e2020700e10f40000300320085
:100a0000bfb497008904e800b9b79f008c01780053
:100a10000c06e900e08f5100edff3a0017003700a7
:100a20003d0090000004b200090032009d017800f2
:100a3000080178003240780080497800830ee80091
:100a400002047800e04f500008003a001000370020
:100a5000080178003200fb00020478008d00780065
:100a6000c7020700e10f4000090032003fb09700c5
:100a70000000e800b0b79f00050037005fb49700a2
:100a8000efb497007fb597008fbd9700cfb6970062
:100a9000090078008004e900e00f5000e0ff3a0010
:100aa000d8b79f00e9b79f00fab79f008bbf9f00a0
:100ab000e00f5700a6023200110037003800900006
:100ac0000004b20004003200180078000d487800dd
:100ad000000ce800050037008800780000022000c4
:100ae000a7020700e10f400003003200bfb29700e9
:100af0008502e800b5b79f000e06780002003700b7
:100b00000dc2b3004fb497000c07e900e00f560088
:100b1000eaff3a008e0237002fb3970046047800b0
:100b2000a6b79f00cfc4de00090578008a057800cb
:100b30000802be000a03be004822de004828dd008d
:100b400004027000c4779f0070066700090032003d
:100b5000e04f520007003200e14f42000500320032
:100b6000d4779f00e8779f0021002000e1b79f0025
:100b700003003700d8779f0012002000e2b79f00e3
:100b800053fb2f0083814700d3b79f007cff3700c2
:100b900044fb2f0004824700d4b79f0015002000bb
:100ba000e5b79f0076ff37000e0cb3000e0078000b
:100bb000000cb2003b003a00e00f570005003d007a
:100bc0002fb097004005be004004be00a0b79f00b4
:100bd0000f00370070006700120032002fb297003c
:100be0004401be00a4b79f00e29f9f00f39f9f00b7
:100bf000140090004f80de0080a79f0090a79f0008
:100c00006f9c9700ff9c97000fa597009fa59700ea
:100c1000d8b79f00e9b79f00fab79f008bbf9f002e
:100c20000b003700afb4970049027800a9b79f00c6
:100c300004007800cf80de00010178008201780096
:100c4000d0b79f00e1b79f00f2b79f0083bf9f001e
:100c50005fb29700efb297007fb397008fbb97000a
:100c6000e00f5200e08f5a00e00f5b00e08f5b0066
:100c700032003d003e00b3006022b8006033b8008f
:100c80005fb49700efb497007fb597008fbd9700d2
:100c90000804520089845a000a055b008b855b00ba
:100ca00022003700e00f570005003d002fb29700eb
:100cb0004401be004400be00a4b79f000f003700ef
:100cc00070006700120032002fb497004803be0086
:100cd000a8b79f00e6a79f00f7a79f008004eb003e
:100ce00089af9f000005eb009aaf9f006fa09700af
:100cf000ffa097000fa997009fa99700d0b79f006a
:100d0000e1b79f00f2b79f0083bf9f000b00370041
:100d1000afb0970041027800a1b79f0004047800ab
:100d2000090020000a0020000b002000d8b79f0017
:100d3000e9b79f00fab79f008bbf9f00efac970009
:100d4000e08f54000d003a001a002000eaaf9f0027
:100d50005fb09700efb097007fb197008fb9970011
:100d6000e00f5000e08f5800e00f5900e08f59006d
:100d7000020032008000eb00e1af9f000e0178001e
:100d8000020cb200b2af9f0005042000850f510095
:100d90003f00320003003c00e00f51000800320029
:100da0005600370004082000bfa99700848f510027
:100db0001b003200040c2000848f51004f003a00c9
:100dc00013c0b300c3779f002184200010003700b8
:100dd0000200fb004300dd00008040003002be0046
:100de0002003be005fb49700efb497007fb5970073
:100df0008fbd97000440e10005c8e10006d0e10086
:100e000007d8e1003d0039000241e800c2779f00a9
:100e10004f719700f44f5100edff3a003700370053
:100e200013c0b300c3779f00040120000500200019
:100e30006033b800120037005fb49700efb497003a
:100e40007fb597008fbd97000440e10005c8e10021
:100e500006d0e10007d8e100280039004900200051
:100e60000402d0008582d2000683d2008783d2009c
:100e70008904e900faff3a000040e800c0779f00cb
:100e80004f709700f04f5000ebff3a001b00370007
:100e900013c0b300c3779f0084002000050020002a
:100ea0006033b800120037005fb49700efb49700ca
:100eb0007fb597008fbd97000440e10005c8e100b1
:100ec00006d0e10007d8e1000c003900390020000d
:100ed0000402d0008582d2000683d2008783d2002c
:100ee0008904e900faff3a000040e800c0779f005b
:100ef0004f709700f54f5000ebff3a004f75970089
:100f00008a02fb00efad97008b8f520002003d007c
:100f1000cb779f00040037006fa89700850f500023
:100f200001003d00e5af9f00cfa89700e08f500083
:100f30000400320063026700020032008100e90011
:100f4000c1af9f00040024000402670009003200c2
:100f50004fa99700efa99700830f510003003400b9
:100f600003015100c2af9f00020037000002eb00f6
:100f7000c4af9f004f7397008602fb008003eb0015
:100f8000a7af9f004fac9700850f540002003400bc
:100f900085025400a5af9f00640267004c00320038
:100fa000e202670061036700e08f52001b0032001d
:100fb000cfb49700390290000404b2000900320057
:100fc00099037800b5c2b300e00f5300010032006e
:100fd00085c2e800854b78004fb59700070de80003
:100fe0000a003700d5022000e00f530001003a004c
:100ff0008582e900cfb09700050078006001070006
:1010000000027800e10f420018003200bfb59700df
:101010008b05e800bbb79f0014003700e00f5300ba
:10102000120032004fb09700300290000404b2006a
:10103000050032009002780003c2b300834a7800b2
:101040000508e80006003700cfb097000002200036
:101050004b01070000027800e10f4200030032005c
:10106000bfb097008100e800b1b79f002fa997009b
:10107000e00f51001101320008c3b300820678006e
:101080004fb697003c0090000004b200040032000c
:101090001c00780008487800000ee80005003700c2
:1010a0008c0078000003200035010700e10f4000ac
:1010b00003003200bfb197008301e800b3b79f007f
:1010c0008d06e900efff3a00adaf9f00fb0037004f
:1010d0002faa9700e00f5200170032006802670045
:1010e00015003a0008c2b300afae97004fb69700a4
:1010f0003c0090000004b200040032001c007800a4
:1011000008487800000ee800050037008c007800e1
:10111000000220001a010700e10f40000300320026
:10112000bfb297008502e800b5b79f008d06e900c1
:10113000efff3a00adaf9f00e20267006103670076
:10114000e08f52001c003200cfb3970037029000ae
:101150000404b2000a003200070478009803780003
:10116000b5c2b300e00f53000100320085c2e800b1
:10117000854b7800cfb49700870ce8000a00370051
:10118000d5022000e00f530001003a008582e900fb
:10119000cfb0970005007800f90007000002780042
:1011a000e10f4200c50032003fb597000a05e80094
:1011b000bab79f00c1003700e00f5300bf003200f4
:1011c000cfb597003b0290000404b2000500320046
:1011d0009b02780003c2b300834a7800850de800c3
:1011e00006003700cfb0970000022000e40007009f
:1011f00000027800e10f4200b00032003fb09700db
:101200000000e800b0b79f00ac0037000e07e9000f
:1012100000042000bfa89700808f50008200320099
:1012200003003c00e08f5000080032008e003700c1
:10123000000820003fa99700800f51006500320090
:10124000000c2000800f510087003a004370dd0041
:10125000cfa99700e08f51002a003d002484200090
:10126000000042003004be002005be00e8af9f0031
:10127000f9af9f008ab79f009bb79f000802be008e
:101280000a03be005fb09700efb097007fb19700f0
:101290008fb9970014020700c0779f000004fb007d
:1012a000cfc4de00090578008a0578006faa970090
:1012b000ffaa97000fb397009fb397000800be00e6
:1012c0000a01be00740207000203be000002be0055
:1012d0005fb09700efb097007fb197008fb997008c
:1012e000040050008580580006015900878159008c
:1012f000d0b79f00e1b79f00f2b79f0083bf9f0068
:1013000030003700df989700e08f50001f00320058
:101310005fb69700efb697002284200000004100de
:101320003004be002005be000801be000c00be0057
:1013300049010700c0779f000000fb00cf80de005e
:101340000801be00540107000002560081825e00c1
:10135000a4a79f00b5a79f008002eb00c5a79f0030
:101360000003eb00d6a79f002fa49700bfa497000f
:101370004fa59700dfa59700d8b79f00e9b79f005a
:10138000fab79f008bbf9f000e0037002984200012
:10139000690178005fb59700811f7800110009008e
:1013a0000285d800cf007800a2002000811f7800bd
:1013b000110009000280d80001007800cf007800f9
:1013c000c0779f00cf7597000b43b000cb779f008d
:1013d00025003700248e20004f989700e00f500022
:1013e00001003a00348f20004270dd005fb49700a6
:1013f000efb497007fb597008fbd9700800278000b
:101400008502e900050033008b05d1000a85d30071
:101410008984d3000884d300f9ff37006f0064008b
:10142000644078000f0037006370b9005fb4970024
:10143000efb497007fb597008fbd9700000278004a
:101440000402e900050033008b05d1000a85d300b2
:101450008984d3000884d300f9ff37006740640013
:101460000043b000c0779f00cfb2970035009000d6
:101470000004b20007003200150178004f70970099
:1014800000497800820ae800e04f500007003a0067
:10149000120037004f7397000600fb00cfb0970093
:1014a00037000700e10f40000c003200bfb3970087
:1014b0008703e800b7b79f00080037007004670093
:1014c000d89f9f008e0478000902b200c99f9f0038
:1014d0000e057800caaf9f006faf9700e00f57006e
:1014e0004aff3a004faf97006801670018003200ca
:1014f000afad9700e08f55001500340008c2b3006f
:101500008b0678003fb797004fb697003c009000dd
:101510000004b200040032001c0078000848780083
:10152000000ee800050037008c0078000002200063
:1015300013000700e10f4000010032000e07e80031
:101540008d06e900f1ff3a000e007800b0b79f0069
:10155000dfa8970091427800c5779f00e0cf520046
:101560003afc3a003fb097004f0778004f06be00a4
:101570004f05be004f04be000f04b100000006007e
:10158000889fbe0001047800b8009000628160006e
:101590008084eb003c003200810178000320b2001f
:1015a0001801900002003a00e00f510036003a00a6
:1015b0000190a0003104980080047800f90fb20077
:1015c000e00f510002003a0028009000000c780063
:1015d000ea8f540006003a00010078000008b200cb
:1015e00003003a0088007800d0002000e4ff0700e4
:1015f00018009000d8009000810f50000b003200be
:101600000000e800100498001800780009487800ed
:10161000000ce80010c0b30021932000804878003f
:10162000ea8f540018003a0005003700880078005f
:101630000940780017000700800478001200370086
:10164000380090000010b2000f0032001801900026
:10165000a8009000480090005000070098009000fb
:10166000810f500004003200380090000003b300e6
:10167000300498008084eb000000eb001004980018
:1016800028009000000c7800090078004f04be008c
:10169000000006000200fa00889fbe00a0ff9f0025
:1016a0000104780038009000800078000104b20046
:1016b00033003a00e200600005003a000003b30086
:1016c00030049800110498000080eb002e003700d1
:1016d000d8049000e08f540006003a001200200069
:1016e000e6805700480090002c000700190498007d
:1016f00023003700a8009000e08f500008003a0057
:101700005193200021049800010c78002100200052
:1017100051049800110498000030a0003004980093
:1017200018019000a8009000480090001b000700de
:10173000280090008080eb0011049800aff897001b
:1017400001487800000ce8002ff89700ea4f50009d
:101750000b003a00380090000010b2000800320080
:1017600018019000a8009000480090000b000700ae
:101770000000eb0010049800a8009000010c780015
:10178000aff897000100fb004f04be000080fa0094
:101790000000060000c0da00000006000a00fa009f
:1017a000e20f500021003e00c0498000e10f5000d0
:1017b000060032008523200044232000232320003c
:1017c00000232000e08f520004003a008522200010
:1017d00044222000232220000022200006002800ae
:1017e0009003630002003a00870a78001008730033
:1017f000004020001300600001003a0013a0a00088
:101800000200780006003700930278000510b2004d
:10181000fdff3200b102fb00050a78000000e9007c
:10182000e00f5000f8ff3a000800370033002000b6
:10183000b3bf9f00c0bf9f00d1bf9f00e2bf9f000a
:101840006a805700d3ff07006fb997000200780045
:101850000080fa00000006006022b80006022000a6
:101860000000d0008180d2000482d2008582d200a4
:101870000000a0000202520083825a0003003100df
:101880000202420083824a000000a1000603e90030
:10189000f3ff3a0000000600020ab900001bb9007d
:1018a0000200b800810042008100430000000600f1
:1018b000889fbe008a9fbe003004be002005be0087
:1018c0000404440085844c0006054d0087854d00c6
:1018d0000898be000a90be000440e10005c8e1007f
:1018e00006d0e10007d8e1000200310068004000a6
:1018f0001008e8004f05be004f04be0000000600bf
:10190000889fbe008a9fbe008c1f7800000678006a
:101910003c04be002c05be000400540085805c0021
:1019200006015d0087815d00009ebe00029ebe0034
:10193000100020000440e10005c8e10006d0e100ed
:1019400007d8e100010039000000eb001c0e100078
:101950004f0678004f05be004f04be000000060091
:101960001200fa00889fbe008a9fbe008c9fbe00b6
:101970000205be000004be00e4b79f00f5b79f005b
:1019800086bf9f0097bf9f000000eb00d0b79f006d
:10199000c0b79f00b0b79f00a0b79f0090b79f004f
:1019a00000067800fd032000dfb197004fb09700dc
:1019b00003814100bfb09700e08f510004003d005b
:1019c000290007007e805700b9ff07000300370099
:1019d000250007007e805700c9ff0700dfb0970091
:1019e000e08f5000070035001400200005002000a3
:1019f0006033b80008047200898472000a0573001d
:101a00008b8573000c06e8008d0f5600e6ff34004e
:101a1000e08f500006003d006fb29700ffb29700c4
:101a20000fbb97009fbb97007e805700a0ff070069
:101a30005fa89700e00f500004003a001fb4970021
:101a4000afb497003fb59700cfb597000800be0030
:101a50000a01be004f06be004f05be004f04be0087
:101a60000080fa0000000600cf01de000281710054
:101a7000b2b79f004f09de00000040000000710077
:101a8000a0b79f000fb097004f01de00818040009b
:101a90008100710091b79f007faa9700cf20de00e0
:101aa000000040000080700080b79f000800be006a
:101ab0000a01be004f18de0004024200000272005c
:101ac000f4af9f000804440089844c000a054d00cf
:101ad0008b854d004fb29700dfb297006fb3970030
:101ae000ffb3970000000600881f78001800200050
:101af000881f78009aff07008f87e9004f0478005d
:101b000000000600801feb0095ff07008f87e900ab
:101b100000000600889fbe008a9fbe008c1f7800d0
:101b2000e00f5000e08f5800e00f5900e08f59009f
:101b30000f003d006044b8006055b800000054003c
:101b400081805c0002015d0083815d001c0020003b
:101b50000820e10009a8e1000ab0e1000bb8e100ab
:101b60000d003d00190007000006eb000a003700d9
:101b70000006eb00e00f5200e08f5a00e00f5b0020
:101b8000e08f5b0004003d006044b8006055b80081
:101b90000e0007001c002000d3ff0700e00f5600d6
:101ba000060032006022b8006033b8000000520026
:101bb00081805a0002015b0083815b004f06780040
:101bc0004f05be004f04be00000006000402540092
:101bd00085825c0006035d0087835d0000000600cf
:101be000889fbe008a9fbe008c1f7800e00f5000c7
:101bf000e08f5800e00f5900e08f59000d003d00c4
:101c00006044b8006055b8000000540081805c005a
:101c100002015d0083815d001c0020000820e100be
:101c200009a8e1000ab0e1000bb8e1000d003d0099
:101c3000080037000006eb00e00f5200e08f5a006a
:101c4000e00f5b00e08f5b0006003d006044b800e1
:101c50006055b8000402540085825c0006035d00f4
:101c600087835d00a7ff0700e00f560006003200e3
:101c70006022b8006033b8000000520081805a0032
:101c800002015b0083815b004f0678004f05be00b8
:101c90004f04be0000000600889fbe008a9fbe0061
:101ca0008c1f78000006eb00e00f5000e08f58001a
:101cb000e00f5900e08f590007003d006044b80074
:101cc0006055b8000000540081805c0002015d0096
:101cd00083815d001c002000e00f5200e08f5a005d
:101ce000e00f5b00e08f5b0007003d006044b80040
:101cf0006055b8000402540085825c0006035d0054
:101d000087835d000c00a2000c000700e00f560066
:101d1000060032006022b8006033b80000005200b4
:101d200081805a0002015b0083815b004f067800ce
:101d30004f05be004f04be0000000600889fbe0095
:101d40008a9fbe008c9fbe000404b8000506b80040
:101d50008904460060854e000606b8000a05460064
:101d6000e0854e000706b8008b054600040eb8005b
:101d7000890446000a854e00e0854d00050eb80036
:101d80000a0546008b854e00060eb8008b054600fe
:101d90000416b8000a0546008b854e000516b800eb
:101da0008b054600041eb8008b0546000800be00e7
:101db0000a01be004f06be004f05be004f04be0024
:041dc0000000060019
:020000040000fa
:101dc400000000000000000000000000000000000f
:101dd400000000000000000080800000c0c000007f
:101de400e0e00000f0f00000f8fc0000dc1c000063
:101df4007c0e0000fefe0000fe8e00002676000031
:101e0400268e0000fffe0000f666000086e6000055
:101e1400eefe00007c1c000058980000b0f00000aa
:101e2400e0e00000c0c000008000000000000000ee
:101e3400000000000000000000000000000000009e
:101e4400000000000000000000000000c04000008e
:101e5400c000000000000000e000000000000000de
:101e6400000000000000000000000000000000006e
:101e7400000000000000000000000000000000005e
:101e8400000000000000000000000000e00000006e
:101e9400000000000000000000000000000000003e
:101ea400000000000000000000000000000000002e
:101eb400000000000000000000000000000000001e
:101ec400000000000000000000000000c0f000005e
:101ed400f0f80000fcff0000ffff0000fdf8000028
:101ee400e1c70000ffff0000ffff0000ffff00004c
:101ef400fefc0000ffff0000ffff0000ffff0000ea
:101f0400ffff0000ffff0000fffe0000ffff0000d6
:101f1400ffff0000fcf90000fafe0000ffe70000ec
:101f2400c3d80000dcd90000e3ff0000fefc000081
:101f3400f8f00000f0c00000000000000000000005
:101f44000000000000000000203e0000090800001e
:101f5400090e0000300000003f2100002121000094
:101f64001e000000002700002529000039000000a1
:101f7400001e00002525000027000000003f00008f
:101f840002010000013e0000000100001f210000ca
:101f9400210000001e25000025270000000000008d
:101fa4001e25000025270000000000002725000052
:101fb40029390000000000000000000000000000bb
:101fc40000800000f0f80000fcff0000ffff0000ac
:101fd400ffff0000ffff0000ffff00007f7f000005
:101fe4007f3f00008fc7000047f30000f3b90000f3
:101ff400e97d0000dd7b0000f3b300001b890000d5
:102004008544000044250000294b00004949000094
:10201400454500002929000023130000870f000014
:102024007fff0000ffff0000ffff0000ffff000034
:10203400ffff0000ffff0000fffc0000f8e00000cd
:10204400800000000000000000000000000000000c
:10205400000000000000000000000000000000007c
:102064000000000040400000c040000040000000ac
:10207400000000000000000000000000000000005c
:10208400000000000000000000000000000000004c
:1020940000000000000000000000000000400000fc
:1020a400404000008000000000000000000000002c
:1020b400000000000000000000000000000000001c
:1020c400e0ff0000ffff0000ffff0000ffff000033
:1020d400ffff0000fff00000801e0000f6f6000085
:1020e400bffd0000ffed00007ffb0000deff0000ed
:1020f4007def0000fbff00005d7f0000331800004f
:102104004c4c000026120000894900005252000085
:102114004a2a00002a2a000029a5000094920000ff
:1021240088410000071f00003fff0000ffff000080
:10213400ffff0000ffff0000ffff0000ffff0000a3
:10214400ffe00000000000000000000000000000ac
:10215400000000000000000000000000000000007b
:1021640000000000000000001f000000000000004c
:102174001e15000015170000000000001d150000ca
:10218400151f0000100000001e010000011f0000c8
:10219400010100001f000000000000000012000008
:1021a400121200000d0000000000000000000000fa
:1021b400000000000000000000000000000000001b
:1021c400002000002020000020240000242400001f
:1021d40024240000242400000c08000000e0000077
:1021e400a0a000002302000022e40000240c000050
:1021f400e8a00000a040000000e10000a1a200004f
:1022040022020000e40000000000000000200000a2
:1022140060c0000080a00000e0c0000080800000da
:1022240080800000808000008080000080800000aa
:10223400a0e00000e0c000008000000000000000fa
:102244000000000000080000080800000a8a0000de
:102254008ac9000049490000282000002027000006
:1022640080800000404000004447000044200000fb
:10227400270000000087000080470000444400005d
:10228400442000002510000010000000000400009d
:10229400060300000105000007030000010100001f
:1022a4000101000001010000010100000101000022
:1022b4000507000007030000010000000000000003
:1022c400000000000060000090980000040400007a
:1022d4001820000040800000c0c00000e0e00000c2
:1022e400e0e00000e0e00000e0c00000c08000008a
:1022f40040200000180400000498000090600000d2
:1023040000000000000000000000000000000000c9
:1023140000700000f08000000000000080f0000069
:1023240070000000c0e00000703000003070000059
:10233400e0c0000000f00000f00000000000000019
:1023440000f00000f00000007070000000f00000d9
:10235400f03000003030000070e00000c0000000e9
:10236400f0f0000030300000303000003000000099
:102374000000000000000000000000000000000059
:102384006090000098040000041800002040000041
:1023940080c00000c0e00000e0e00000e0e00000d9
:1023a400e0e00000c0c000008040000020180000f1
:1023b4000404000098900000600000000000000089
:1023c40000000000000000000000000001e2000026
:1023d400fcfe0000ff9f00000f0f00009fff0000a5
:1023e400ffff0000ffff00009f0f00000f9f000091
:1023f400fffe0000fce200000100000000000000fd
:1024040000000000000000000000000000000000c8
:1024140000000000010300003f3f00000301000032
:10242400000000000f1f00003830000030380000aa
:102434001f0f0000000f00001f38000030300000a4
:10244400381f00000f00000000000000003f0000e3
:102454003f060000060e00001f3b00003100000094
:102464003f3f0000333300003333000030000000ee
:102474000000000000000000000000000000000058
:102484000000000000010000e2fc0000feff00006c
:102494009f0f00000f9f0000ffff0000ffff0000e0
:1024a400ff9f00000f0f00009fff0000fefc0000d4
:1024b400e201000000000000000000000000000035
:1024c4000000000000000000000000008043000045
:1024d4003f7f0000ffff0000ffff0000ffff000040
:1024e400e3f10000e3ff0000ffff0000ffff000036
:1024f400ff7f00003f430000800000000000000058
:1025040000000000000000000000000000000000c7
:1025140000000000000000000000000000000000b7
:10252400fcfc00000c0c00000c1c0000f8f0000087
:1025340000fc0000fccc0000cccc0000cc0c000063
:1025440000f00000f8dc0000cccc0000dcf8000057
:10255400f0000000fcfc00000c0c00000c1c00004f
:10256400f8f000000000000000000000000000007f
:102574000000000000000000000000000000000057
:102584000000000000800000433f00007fff0000c7
:10259400ffff0000ffff0000ffe30000f1e3000085
:1025a400ffff0000ffff0000ffff00007f3f00006f
:1025b4004380000000000000000000000000000054
:1025c400000000000006000009190000202000009f
:1025d40018040000021f0000111100001f11000068
:1025e400111f0000111100001f110000111f000035
:1025f4000204000018200000201900000906000051
:1026040000000000000000000000000000000000c6
:1026140000000000000000000000000000000000b6
:102624000f0f00000c0c00000c0e0000070300004c
:10263400000f00000f0c00000c0c00000c0c00003c
:10264400000f00000f00000000000000000f000059
:102654000f0000000f0f00000c0c00000c0e000017
:10266400070300000000000000000000000000005c
:102674000000000000000000000000000000000056
:1026840006090000192000002018000004020000c0
:102694001f110000111f0000111100001f11000084
:1026a400111f0000111100001f0200000418000097
:1026b40020200000190900000600000000000000ae
:1026c4007e080000087e0000007e00004a4a0000e8
:1026d400420000007c0a00000a7c0000007e00002a
:1026e4004040000040020000027e000002020000a0
:1026f400007e0000080800007e00000024000000a6
:102704007c0a00000a7c0000007c0000020e00002d
:10271400027c0000007c0000020e0000027c00002d
:10272400003c0000424200003c0000002400000085
:102734000000000000000000000000000000000095
:102744003c42000042240000003c000042420000e1
:102754003c0000003c420000423c0000007e0000bf
:1027640040400000400000007e420000423c000067
:10277400003c0000424200003c0000003e400000db
:10278400704000003e0000007e040000087e00004f
:102794000024000000000000000000000000000011
:1027a4000000000000000000000000000024000001
:1027b4004a520000240000007e4a00004a42000001
:1027c400003c00004242000024000000244a0000b3
:1027d400522400000000000000000000000000007f
:1027e40000000000000000000818000078f000005d
:1027f400e0c8000098b80000f0e00000c0800000cd
:1028040080800000808000008080000080800000c4
:10281400beaa000094800000bea20000be8000009a
:10282400bea00000a0820000be82000080800000e4
:102834008080000080800000808000008080000094
:102844008088000098f80000f0e00000e0c000007c
:10285400c080000000000000000000000000000034
:102864000000000000000000101800001e0f00000f
:1028740007130000191d00000f07000003010000ea
:1028840001010000010100007d4100004101000040
:102894007d4500007d0100007915000079010000ec
:1028a4007d450000390100007d5500004501000010
:1028b4007d45000039010000010100000101000014
:1028c40001110000191f00000f070000070300009a
:1028d40003010000000000000000000000000000f0
:1028e40000000000000000001028000048900000d4
:1028f400100e00000204000008e60000222400007c
:10290400c8100000c8a80000a4c4000002c200004f
:1029140022e4000028c4000002c20000a4a40000b5
:10292400c8100000c82600002244000004e400008f
:10293400a8a8000028040000e224000028c8000021
:1029440004020000e2040000080400000462000025
:102954005448000080000000000000000000000057
:102964000000000000020000050500000908000046
:1029740070400000201000001027000044440000b4
:10298400231000002720000040470000201700000b
:10299400100800001067000040270000102000000d
:1029a4004720000013140000152300001027000026
:1029b4002444000044200000172400004463000065
:1029c4001010000025400000404c00002a120000b6
:1029d400040800000c0300000000000000000000d8
:1029e4003c5200004a3c000000000000447e00000d
:1029f4004000000044620000524c0000002400002b
:102a0400424a0000340000000e0800007e08000066
:102a1400002e00004a4a0000320000003c4a000038
:102a24004a30000000020000621a000006000000a4
:102a3400344a00004a340000000c000052520000e6
:102a44003c000000000000000000000080000000c6
:102a540000000000008000000000000000000000f2
:102a640068650000616c000074680000206100006b
:102a740074200000006200006f6c000074200000ed
:102a84006c6f000061640000656400003f21000079
:102a9400006e00006f200000626f00006c74000084
:102aa400206c00006f61000064650000642e00006b
:102ab4002e2e0000006100006d6d00006f200000ec
:102ac4006c650000766500006c20000061740000f5
:102ad40020000000636f00006f6c0000646f000052
:102ae400776e000020610000742000000066000082
:102af40069720000696e000067200000626f0000c8
:102b04006c740000210000006e6f0000742000004f
:102b140066690000726900006e6700002e2e0000d6
:102b24002e0000000d0a0000426f00006f740000c8
:102b3400696e0000672e00002e2e00000069000060
:102b44006e69000074690000616c0000697a00001d
:102b5400696e0000672000004f4c000045440000ef
:102b64002064000069730000706c0000617900004b
:102b74002e2e00002e0d00000a0000004d6b0000f8
:102b840020340000206200006f6f000074650000b4
:102b9400642e00000d0a00000d0a0000005400001d
:102ba4004150000020450000564500004e540000ee
:102bb4000061000066740000657200002066000079
:102bc40069720000696e000067200000636f0000f6
:102bd4006d7000006c650000746500000d0a000053
:102be40000530000574900005045000020450000f4
:102bf400564500004e5400002c2000007374000061
:102c0400722000003d2000000000000000000000d1
:102c140000000000000000000000000000000000b0
:102c240000000000000000000000000000000000a0
:102c34000000000000000000000000000000000090
:102c44000000000000000000000000000000000080
:102c540000000000000000000025000064000000e7
:102c6400645f00006f6e0000313a00002000000035
:102c7400645f00006f6e0000323a00002000000024
:102c840065720000726f000072200000696e00001f
:102c940020700000616300006b650000740d00008b
:102ca4000a000000696e0000697400006961000098
:102cb4006c6900007a6900006e6700002061000002
:102cc4006c6c0000204900002f4f000020700000b1
:102cd400696e0000732e00002e2e00000d0a000005
:102ce40000000000310000003000000066610000b8
:102cf400696c000065640000207400006f2000000f
:102d0400736500006e6400003f0d00000a000000bf
:102d14006e6f000020610000636b00000d0a00006c
:102d2400000d00000a5e0000646500006c61000094
:102d34007965000064200000616300006b200000de
:102d440072650000616400002e5e00000d0a000040
:102d5400006900006e69000074690000616c000085
:102d6400697a0000696e000067200000746f00003b
:102d740075630000682e00002e2e00000063000022
:102d840061700000746f000075630000682000002b
:102d9400776f0000726b0000696e0000672100000d
:102da4000d0a00000063000061700000746f0000f1
:102db400756300006820000066610000696c000013
:102dc40065640000210d00000a000000202d0000b1
:102dd40020620000002000002d200000630000009d
:102de400202d000020640000002000002d200000a1
:102df400650000000d000000736800006f6f0000a4
:102e0400746900006e670000204d00004952000004
:102e14005020000070610000636b000065740000c6
:102e240020770000697400006820000073740000bb
:102e3400726500006e67000074680000206f000077
:102e44006620000000000000796f00007527000074
:102e540072650000207400006f740000616c000053
:102e64006c7900002064000065610000642c00009f
:102e74002064000075640000652e0000000000005e
:102e8400706c000061790000696e0000672000002a
:102e9400736f0000756e00006420000000000000e5
:102ea4006c6500006420000062610000723a00005a
:042eb40020000000fa
:020000040000fa
:102eb8005000fa0060279800712798000080eb0006
:102ec800601988000136800000fe2f000080600035
:102ed8003000b300003688002135800000fe2f0046
:102ee800008060000000a0002035880070012000ec
:102ef800401188002002a9000111800090ff2f00d6
:102f0800008060000011880020a2a9002062a900aa
:102f180011118000f0f32f0000806000101188006c
:102f280021e2a8002342a8000000eb00000f78006f
:102f380002003700000000001e0fe800f003210027
:102f48009e007800808f5000faff36004059290013
:102f58001609070002090700ce020700a30b0700a5
:102f6800105a290011090700ae0507000000eb0000
:102f7800090707002e0b07000000eb00000f780080
:102f88000c0037000000eb00100798000400370021
:102f9800000000001e0090000000e80010079800e4
:102fa8009e009000b0032000808f5000f8ff36008c
:102fb8001e0fe800f07022009e007800808f5000fd
:102fc800f0ff360060002000720b07000000eb00e5
:102fd800000f78000c0037000000eb001007980085
:102fe80004003700000000001e0090000000e80008
:102ff800100798009e009000b0032000808f5000ba
:10300800f8ff36001e0fe800f07022009e007800de
:10301800808f5000f0ff36003d040700ce090700fe
:1030280010002000dc0607004a0a0700005c29009f
:10303800de080700c041800005070700d041800076
:10304800a40607000040eb0020e8b7000040eb00b2
:1030580021e8b7000040eb0022e8b7000040eb0091
:1030680023e8b7007060290090407800514f98001d
:103078000e007800e000b000260009000058eb00c0
:103088000000eb0020079800010037000000000056
:1030980020c8bf00e04f5000330032000040eb0072
:1030a80020e8b70020418000e10f50000f003a00ef
:1030b80030002000370b070010c0b300400707009e
:1030c800ef000700d04180000000e900d0418800ef
:1030d800d0418000e00f500002003d000000eb00ee
:1030e800d0418800d04180007a0607002041800046
:1030f800e20f50000b003a00d04180000000e800c9
:10310800d0418800d141800040062000808f5000c7
:103118000200340040062000d0418800d0418000e1
:103128006c060700d0418000e00f50000e003a0006
:10313800200020009806070050002000150b07000b
:103148000040eb006047980002003700010a0700c2
:10315800604798006e4090000004a200e04f5000c5
:10316800faff3a00ffff370021c8bf00e04f5000c8
:1031780009003200e0418000e30f500002003a00ed
:1031880040002000030b07000040eb0021e8b700d7
:10319800e04180001607070022c8bf00e04f50003a
:1031a800040032000040eb0022e8b7000040eb00ca
:1031b8000307070023c8bf00e04f50000400320097
:1031c8000040eb0023e8b7000040eb003c07070095
:1031d800600320000e004000850407006e70900018
:1031e800e04f500030003200105d29006f080700e2
:1031f800d80907005a080700b0418000e00f5000c6
:103208000d003a00e0418000e00f50000a003a004b
:10321800c0418000e00f50002300340010c0b3000c
:103228007606070020002000da0a070010002000b8
:10323800b04188001c003700b0418000e20f500008
:1032480019003a000040eb006c06070010c0b300fc
:103258001b0707009100070010002000cd0a070097
:10326800f0418000120907000000eb00e40a0700a3
:103278000000eb00b0418800c04180000000e90078
:10328800c0418800c041800071060700b05d290078
:103298004608070040002000e0418800e041800027
:1032a800d30607006f0007007e709000e04f5000c3
:1032b8002f003200305f29003c0807006000b8008a
:1032c800501f9800611f98008e007800e103b0003d
:1032d800050009008018eb008058eb00ce1890001c
:1032e800a00320000e004000a2002000a6f4070062
:1032f8002e0807001a080700b0418000e10f5000af
:1033080003003200b0418000e20f500018003a007c
:103318004e189000f04188000000eb00400798002c
:103328000000eb00500798000000eb0050079800e1
:10333800070037004e009000000040000000e80041
:10334800400798005e0090000000e80050079800d1
:10335800f0418000de009000808f5000f5ff3500be
:103368004e009000a60a070020002000b041880007
:103378001011800064006000e00f5000010032006e
:10338800370037001011800062006000e00f500025
:10339800020032002222a9003100370010118000fb
:1033a80061006000e00f500038ff320030118000eb
:1033b800404f98004e489000ed4f500010003a00e2
:1033c800ae00900070022000808f500006003c0084
:1033d800ed0047002e009000808040000040eb0088
:1033e80080487800020037000040eb0050779800d2
:1033f8000000eb0020079800d907070024ff3700da
:10340800ae00900070022000808f500010003c0039
:10341800ce489000f0c7b30080cf500004003a00b7
:103428002e0090000000e9002007980008003700ef
:10343800ed0047002e00900000804000ce4890002c
:10344800014878002e0090000000e800200798004e
:103458004e4890000000fb00201188000cff370048
:103468000bff37000000fa000000eb00000888009e
:103478009460a80005e1a8000080fa00000006009a
:103488000000fa000000eb003008880094e0a80073
:1034980011e1a8000080fa00000006000000fa0010
:1034a8000000eb00500888009500a80013e1a80070
:1034b8000080fa0000000600801f78000000fa0073
:1034c800e0418000e00f500006003400e041800039
:1034d8000000e900e041880010c0b30021e8b7000f
:1034e8000200370005e1a9009460a9008460a900e2
:1034f8000080fa004f00780000400600801f780026
:103508000000fa0010c0b30022e8b70011e1a900da
:1035180094e0a90084e0a9000080fa004f00780038
:1035280000400600801f78000000fa0010c0b300b9
:1035380023e8b70013e1a9009500a9008500a900b8
:103548000080fa004f007800004006003600f800be
:10355800809fbe00829fbe00849fbe00869fbe00e3
:103568001200fa000000eb00204188000040eb0048
:1035780034e8b7000000eb00304188000000eb00a1
:10358800404188000000eb00504188000000eb003b
:10359800604188000000eb00704188000000eb00eb
:1035a800804188000000eb009041880034c8bf00cb
:1035b800e04f500025003a000300370030418000fa
:1035c8000000e80030418800511680000002200009
:1035d80000806000e00f5000f8ff3200070037005d
:1035e800404180000000e8004041880041418000df
:1035f800c05d2000808f500006003e0051168000fc
:103608000002200000806000e00f5000f4ff3a0044
:10361800010037000000000041418000a02d20007b
:10362800808f500004003e0041418000b02b2000f4
:10363800808f500003003e0030c0b30034e8b7006c
:103648000200370010c0b30034e8b70034c8bf0028
:10365800e34f500006003a000040eb0034e8b700a2
:103668000000eb00304188000000eb00404188007a
:1036780034c8bf00e14f50003b003a000300370058
:10368800504180000000e800504188005116800039
:103698000002200000806000e00f5000f8ff3200b8
:1036a80009003700604180000000e80060418800a0
:1036b80061418000c05d2000808f5000020036000c
:1036c80000000000090037005116800000022000a9
:1036d80000806000e00f5000f2ff3a00030037005e
:1036e800704180000000e800704188005116800099
:1036f8000002200000806000e00f5000f8ff320058
:1037080009003700804180000000e80080418800ff
:1037180081418000c05d2000808f5000020036008b
:103728000000000009003700511680000002200048
:1037380000806000e00f5000f2ff3a0003003700fd
:10374800904180000000e8009041880051168000f8
:103758000002200000806000e00f5000f8ff3200f7
:1037680020c0b30034e8b70034c8bf00e24f5000af
:10377800b6003a006000b800008fbe000e00780066
:103788004000b000050009000018eb000058eb00ed
:1037980050418000801f7800f0622900801f780067
:1037a8000e00780087f30700e4875700206329009c
:1037b800fe0607000e007800fc060700e806070072
:1037c80070418000801f7800f0622900801f780017
:1037d8000e0078007bf30700e4875700a0632900f8
:1037e800f20607000e007800f0060700dc06070066
:1037f8003141800090062000808f500004003e0078
:1038080031418000a0042000808f500002003e005b
:103818000040eb0034e8b70034c8bf00e04f500068
:10382800760032005141800090092000808f5000be
:103838000f00360051418000600b2000808f50003f
:103848000b003e007141800090092000808f5000dd
:103858000700360071418000600b2000808f500007
:1038680003003e001000200020418800630037005c
:1038780051418000f00d2000808f50000f0036006d
:1038880051418000c00f2000808f50000b003e0087
:1038980071418000f00d2000808f50000700360035
:1038a80071418000c00f2000808f500003003e004f
:1038b800200020002041880050003700514180003e
:1038c80090142000808f50000f0036005141800076
:1038d80060162000808f50000b003e007141800070
:1038e80090142000808f500007003600714180003e
:1038f80060162000808f500003003e00300020003a
:10390800204188003d00370051418000f019200017
:10391800808f50000f00360051418000c01b2000ee
:10392800808f50000b003e0071418000f01920008c
:10393800808f50000700360071418000c01b2000b6
:10394800808f500003003e00400020002041880086
:103958002a00370051418000501f2000808f5000fe
:103968000f0036005141800020212000808f500038
:103978000b003e0071418000501f2000808f5000d6
:10398800070036007141800020212000808f500000
:1039980003003e0050002000204188001700370037
:1039a80051418000b0242000808f50000f00360065
:1039b8005141800080262000808f50000b003e007f
:1039c80071418000b0242000808f5000070036002d
:1039d8007141800080262000808f500003003e0047
:1039e800600020002041880004003700206429007e
:1039f8006e0607000000eb00204188000000eb0085
:103a0800304188000000eb00404188000000eb00d6
:103a1800304188000000eb00404188000000eb00c6
:103a2800504188000000eb00604188000000eb0076
:103a3800704188000000eb00804188000000eb0026
:103a4800904188000040eb0034e8b70010c0b30094
:103a580020e8b7008680a9000080fa004f03be0066
:103a68004f02be004f01be004f00be003600f900f5
:103a7800004006000000fa008400a9000080fa0057
:103a8800004006000000fa008480a9000080fa00c7
:103a9800004006000000fa004065290043060700c0
:103aa800c022a900c002a900c8a2a800c882a90013
:103ab800c9c2a900c9e2a900c842a900c862a900f0
:103ac800c042a90001348000f00f2e008080600001
:103ad80000502000008070000034880061368000ab
:103ae80000fe2f00008060007000b3006036880080
:103af80061368000f00f2e0080806000008020007a
:103b0800008070006036880051368000f00f2e006b
:103b1800808060000000210000807000503688001e
:103b2800a135800000fe2f0000806000a000b300d7
:103b3800a035880005e1a9000421a90004c1a90055
:103b48002108800000032000008070002008880001
:103b580090d023001008880021058000f0ff28007d
:103b6800808060000000220000807000200588002e
:103b78008460a90011e1a9001061a9001021a90021
:103b880010c1a90081088000000320000080700097
:103b980080088800c01b220060088800310580006a
:103ba800f0ff280080806000000021000080700085
:103bb8003005880084e0a90013e1a9001221a900ba
:103bc80012c1a90091088000000320000080700045
:103bd800900888008037240070088800410580001c
:103be80080ff2f00008060000000a00040058800d2
:103bf8008500a9008220a8007105800080ff2f00a1
:103c0800008060000020a000700588008680a90060
:103c18009680a8008200a9002105800080ff2f005f
:103c2800008060003000b300200588008400a900ef
:103c38009400a8000080fa00000006000600fa00c0
:103c4800404798004e409000204798000000eb0045
:103c5800000f78000d0037002e409000e04f500014
:103c680003003d0040672900d00507000200370027
:103c780060672900cd0507002e4090000000fb007a
:103c880000004000204798001e0fe8001e00780042
:103c9800e70f5000f0ff34000080fa000000060033
:103ca8000600fa00200798002e00900010079800e0
:103cb8000000eb00000f78000e003700f100200034
:103cc8001e8050009e0090000088de0061006000a9
:103cd80000407800e04f50000300320040672900a0
:103ce800b20507000200370060672900af0507002a
:103cf8001e0fe8001e007800ef0f5000efff3400a1
:103d08000080fa00000006000400fa00100798007e
:103d18000a0037000000eb00000f780001003700b0
:103d28001e0fe8001e007800e90f5000fcff360067
:103d38001e0090000000e900100798001e00900087
:103d4800e00f5000f3ff3a000080fa000000060080
:103d58000200fa000000eb00000f78000642a800fd
:103d68000600370010002000e7ff07001e0fe800dc
:103d78001e007800f40f500005003c003010800051
:103d880064006000e00f5000f6ff3a0001003700c1
:103d9800000000000662a9008620a90008e2a90028
:103da80041108000f0bf2f000080600040108800a4
:103db800a0002000d4ff07000080fa0000000600e1
:103dc8000200fa00300220002010880007e2a90053
:103dd8000722a8008620a90007e2a800001080009a
:103de800000f7800daff07000080fa0000000600e4
:103df8000200fa000000eb00000f780006a2a900fc
:103e0800a0002000c0ff07000602a8000000000074
:103e18000600370010002000bbff07001e0fe80057
:103e28001e007800f40f500005003c0030108000a0
:103e380061006000e00f5000f6ff3a000100370013
:103e48000000000020002000afff07000080fa00fb
:103e5800000006000200fa000000eb00000f7800e6
:103e68000622a8000000000006003700100020000d
:103e7800a5ff07001e0fe8001e007800f40f500091
:103e880005003c003010800062006000e00f500028
:103e9800f6ff3a0001003700000000002000200073
:103ea80099ff07000080fa00000006000400fa00ed
:103eb80010079800000000004010800061006000ba
:103ec800e00f5000fcff3a008620a9001e00900079
:103ed800101088000000eb00000f78000800370081
:103ee800411080000000240000806000e00f5000b6
:103ef800080032001000200083ff07001e0fe800b2
:103f0800301f20009e007800808f5000f4ff34009e
:103f18000100370000000000401f20009e007800cc
:103f2800808f500004003a00806729001f050700b1
:103f380010c0b3000d0037004110800000002800b9
:103f480000806000e00f500005003200a0682900e2
:103f5800160507007eff070010c0b30003003700f6
:103f68002000200068ff07000040eb000080fa00f6
:103f7800000006000400fa000000eb00000f7800c3
:103f88000040eb00204798000662a80005003700b3
:103f98001e0fe800007d20009e007800808f5000f2
:103fa80005003c004010800062006000e00f5000f7
:103fb800f7ff320001003700000000000010800009
:103fc800204798002e4090000080fa00000006006c
:103fd8000400fa000000eb00000f78000040eb003e
:103fe800204798000662a800080037001e0fe80066
:103ff800007d20009e007800808f50000300340070
:1040080030692900e90407000400370040108000e7
:1040180062006000e00f5000f4ff320000108000e2
:10402800204798000682a800a000200036ff07005d
:104038002e4090000080fa00000006000400fa00fc
:10404800004f7800114798002247980068ff070042
:104058001e00fb0095ff07001e4090000000fb00bb
:1040680092ff07002e4090000000fb008fff070022
:1040780037ff07000080fa00000006000400fa007d
:10408800204798003147980059ff07002e409000bc
:104098000000fb0085ff07003e4090000000fb0089
:1040a80082ff0700a000200017ff070069ff070034
:1040b8002e4090000004a0000000fb007bff0700da
:1040c800acff0700004f780021ff07001e40780072
:1040d8000080fa00000006000200fa00000f7800d5
:1040e8000200370000000000000000001e00ea0087
:1040f8001e0070004f00de00004078001e0fe9002f
:10410800e04f5000f7ff3a000080fa000000060078
:104118000400fa002aff07000000eb00000f7800f7
:1041280002003700000000001e0fe800f003210025
:104138009e007800808f5000faff360040cbb30015
:104148001fe8b7001fc8bf0012c0b300b1c2b30058
:10415800baff07001fc8bf0012c0b300c1c2b30036
:10416800b6ff07001fc8bf000041eb00d1c2b30073
:10417800b2ff07001fc8bf000041eb00e1c2b30057
:10418800aeff07001fc8bf0012c0b300f1c2b300e2
:10419800aaff07001fc8bf0012c0b30001c3b300c5
:1041a800a6ff07001fc8bf0000c1eb0011c3b30082
:1041b800a2ff07001fc8bf0022c0b30021c3b3007d
:1041c8009eff07001fc8bf00f2c0b30011c4b300b0
:1041d8009aff07001fc8bf00a2c0b30021c4b300e4
:1041e80096ff07001fc8bf00f2c0b30031c4b30078
:1041f80092ff07001fc8bf00a2c0b30041c4b300ac
:104208008eff07001fc8bf00f2c0b30051c4b3003f
:104218008aff07001fc8bf00a2c0b30061c4b30073
:1042280086ff07001fc8bf00f2c0b30071c4b30007
:1042380082ff07001fc8bf00a2c0b30081c4b3003b
:104248007eff07001fc8bf00f2c0b30091c4b300cf
:104258007aff07001fc8bf00a2c0b300a1c4b30003
:1042680076ff07001fc8bf00f2c0b300b1c4b30097
:1042780072ff07001fc8bf00a2c0b300c1c4b300cb
:104288006eff07001fc8bf00f2c0b300d1c4b3005f
:104298006aff07001fc8bf00a2c0b300e1c4b30093
:1042a80066ff07001fc8bf00f2c0b300f1c4b30027
:1042b80062ff07001fc8bf00a2c0b30001c5b3005a
:1042c8005eff07001fc8bf00f2c0b30011c5b300ee
:1042d8005aff07001fc8bf00a2c0b30021c5b30022
:1042e80056ff07001fc8bf00f2c0b30031c5b300b6
:1042f80052ff07001fc8bf00a2c0b30041c5b300ea
:104308004eff07001fc8bf00f2c0b30051c5b3007d
:104318004aff07001fc8bf00a2c0b30061c5b300b1
:1043280046ff07001fc8bf00f2c0b30071c5b30045
:1043380042ff07001fc8bf00a2c0b30081c5b30079
:104348003eff07001fc8bf0042c0b300d1c5b3007d
:104358003aff07001fc8bf0092c0b300e1c5b30011
:1043680036ff07001fc8bf00b2c0b300b1c7b30013
:1043780032ff07001fc8bf0092ccb300d1c7b300fb
:104388002eff07001fc8bf0022c8b300e1c7b30053
:104398002aff07001fc8bf0052cbb300f1c7b30004
:1043a80026ff07000040eb001ee8b700b06a2900ae
:1043b800fe030700ea0307001fc8bf00c1c5b3001a
:1043c8002eff0700204798002e409000f04f500025
:1043d80003003a00106c2900f403070002003700bc
:1043e800506d2900f10307000080fa000000060064
:1043f8000a00fa00881f7800000478000040eb00eb
:10440800604798000040eb00704798001fc8bf0045
:104418008040eb0019ff0700204798001fc8bf0025
:1044280011c0b30015ff0700304798003e409000c8
:104438000080fb006f006000c800dd002e40900087
:104448000080fb000080700020079800ae009000fc
:104458000010200000806000e00f500005003200ce
:104468000040eb0040e8b70010c0b3006047980078
:104478003a003700ae009000f00f20000080600086
:10448800e00f500033003200ae009000000820001a
:1044980000806000e00f50000700320010c0b30039
:1044a8007047980010002000400798002e009000e8
:1044b8000040780040e8b7000000eb00000f7800eb
:1044c80020003700010820001e0078000088de0068
:1044d800800078002e00900000806000e00f5000ff
:1044e8001700320040c8bf008000fb001e00e80033
:1044f800020820000090de0000806000e00f5000fd
:1045080008003a0040c8bf008000fb001e00e90018
:10451800020820000090de0000806000e00f5000dc
:104528000700320010c0b300704798001e00e80072
:10453800400798002e0090000040780040e8b7003f
:104548001e0fe8001e007800e70f5000ddff340062
:10455800020037000040eb0040e8b7003e00900042
:10456800ce009000008cbe00080078004f04780050
:104578000080fa00000006000200fa001fc8bf0011
:104588008040eb00bdfe0700004f78001e40780019
:10459800aafd0700806e2900840307001fc8bf001a
:1045a80011c0b300b5fe0700004f78001e40780028
:1045b800a2fd0700d06e29007c0307001fc8bf00ba
:1045c80021c0b300adfe0700004f78001e40780000
:1045d8009afd0700206f2900740307001fc8bf0059
:1045e80031c0b300a5fe0700004f78001e407800d8
:1045f80092fd0700706f29006c0307001fc8bf00f9
:10460800e1c5b3009dfe0700004f78001e4078000a
:104618008afd0700c06f2900640307000080fa00c4
:10462800000006000200fa00cde2a9000000eb003d
:10463800000f780002003700000000001e0fe8009d
:10464800f0e723009e007800808f5000faff3400c6
:104658008540a9009540a90011128000c0ff2f00d5
:10466800008060000000a000101288001112800075
:1046780030fe2f00008060008001b3001012880017
:104688004382a9004362a9004342a90042e2a9006b
:104698004322a9004302a90042c2a80042a2a800de
:1046a80041e2a800cde2a8000000eb00000f78006e
:1046b80002003700000000001e0fe800f0e72300aa
:1046c8009e007800808f5000faff340010c0b300bd
:1046d800a902070000c7b300c4020700f0c1b30075
:1046e800850207000040eb00b80207000040eb001d
:1046f800550207000040eb009602070050c0b300c7
:10470800c20207000040eb00310207000040eb0046
:10471800640207000040eb00a502070000c1b300d7
:10472800ca020700f3c3b300f2c3b300f1c3b30076
:10473800f0c3b300e2020700f0cbb3004902070060
:10474800f0cbb3004f02070020cdb300b70207003b
:1047580080c0b300c60207000040eb005802070003
:104768000040eb005d0207000040eb00040007007a
:1047780010c0b300800207000080fa0000000600a5
:104788000400fa00204798000040eb00004f780032
:10479800110037001e4078007e0207000040eb0041
:1047a800fe0107000040eb001047980005003700a5
:1047b8002e409000e80107001e4090000040e800ed
:1047c800104798009e40900030c8b30080cf50003a
:1047d800f7ff36001e4fe8001e407800e74f5000f4
:1047e800ecff36000080fa00000006000400fa0022
:1047f800100798000040eb00004f780018003700c1
:104808001e407800630207000040eb00e301070048
:104818000040eb00104798000d0037001e40900044
:104828008080fb001e4178000280fb004700dd000d
:10483800008040009e0090000080400010407800fa
:10484800c50107001e4090000040e800104798008e
:104858001e409000e04f5000f0ff3d001e4fe80062
:104868001e407800e34f5000e5ff36000080fa0054
:10487800000006000400fa00100798000040eb0052
:10488800004f78001f0037001e40e8004102070073
:104898000040eb00c10107000040eb001047980002
:1048a800130037001e009000e00f50000b0032008c
:1048b8001e4090008080fb001e4178000280fb00b3
:1048c8004600dd00008040009e009000008040000f
:1048d80010407800a0010700020037000040eb00fc
:1048e8009d0107001e4090000040e8001047980016
:1048f8009e409000f0c3b30080cf5000e9ff36001f
:104908001e4fe8001e407800e14f5000deff3600e1
:104918000080fa00000006000400fa001007980062
:104928000040eb00004f78001f0037001e40e800f1
:104938001802070010c4b300980107000040eb00fc
:1049480010479800130037001e009000e00f500039
:104958000b0032001e4090008080fb001e41780052
:104968000280fb004600dd00008040009e009000b1
:1049780000804000104078007701070002003700ef
:104988000040eb00740107001e4090000040e80062
:10499800104798009e409000f0c3b30080cf5000ad
:1049a800e9ff36001e4fe8001e407800e14f500036
:1049b800deff36000080fa00000006000400fa005e
:1049c800100798000040eb00f20107000040eb00e0
:1049d800720107000040eb00004f78000700370025
:1049e8009e4078000180fb009e00900000804000ff
:1049f80010407800580107001e4fe8001e4078005c
:104a0800fe4f5000f6ff36000080fa000000060056
:104a18000400fa001007980030c0b300dd01070059
:104a28000040eb005d0107000040eb00004f7800fc
:104a3800070037009e4078000180fb009e00900030
:104a48000080400010407800430107001e4fe80036
:104a58001e407800fe4f5000f6ff36000080fa0036
:104a6800000006000400fa001007980030c0b300e8
:104a7800c801070000c3b300480107000040eb006d
:104a8800004f78000d0037001e009000e00f500026
:104a9800070032009e4078000180fb009e009000d5
:104aa80000804000104078002b010700020037000a
:104ab8000040eb00280107001e4fe800f0c4b300d7
:104ac8009e40780080cf5000efff36000080fa004b
:104ad800000006001600fa00200f98006000b800d9
:104ae80010079800210798000e0078006000b000b9
:104af800050009000018eb000058eb000e80e800e4
:104b0800a2002000ae0890009fee07002053290065
:104b1800260207000e80e8002402070010020700a2
:104b28000040eb009b01070020c2b3001b010700f7
:104b3800e0c7b300080107000000eb00000f780091
:104b48000d003700ae08900020002000000178001a
:104b5800110009008200d8009e0f500003003600a3
:104b6800e0c7b300fc0007000200370020c4b30010
:104b7800f90007001e0fe800100320009e007800cf
:104b8800808f5000efff3600e0c7b300f200070047
:104b98000080fa00000006000200fa00000f78000a
:104ba8001e007800e00f500003003a0020ee2800b5
:104bb8000eff07000f0037001e007800e10f5000bd
:104bc80007003a000040eb00edfe07002036290000
:104bd8007aff0700203829008dff070005003700fd
:104be8001e007800e20f500002003a00201629004b
:104bf800fefe07000080fa00000006000200fa002e
:104c0800004f78001e407800e04f5000030032004b
:104c1800d0532900e501070002003700b0542900ed
:104c2800e2010700ce0107001e407800e04f500067
:104c380003003200203f29000eff07000200370062
:104c48000000eb000bff07000080fa0000000600e0
:104c58001a00fa00400f98006000b800300798006a
:104c6800410798000e007800a000b0000500090078
:104c78000018eb000058eb0066004700a200200077
:104c8800ce08900040ee0700d0552900c701070064
:104c980066004700c5010700b101070030c0b30036
:104ca8003c010700d0c1b300bc0007000000eb00c6
:104cb800000f780011003700ce089000a0002000f7
:104cc80000017800110009008200d8002007980030
:104cd8002e009000e00f50000c0034002e009000d1
:104ce8006500b900000078001e004000214f29002f
:104cf80061407800980007001e0fe8001e00780049
:104d0800e30f5000ecff3600010037000000000000
:104d18000040eb00900007000000eb00100798002f
:104d280013003700ce089000a00020000001780092
:104d3800110009008200d8008000fd0020079800bb
:104d48002e0090006500b90000007800800078000f
:104d58001e00900000804000214f2900614078002b
:104d68007d0007001e0090000000e8001007980072
:104d78001e009000e30f5000eaff36004e08900036
:104d880069004000f20f50000b003e000000eb00ed
:104d980010079800050037000040eb006e00070080
:104da8001e0090000000e800100798001e00900008
:104db800e30f5000f8ff36000080fa0000000600fc
:104dc8000200fa00004f78001e407800e04f5000c3
:104dd8000300320020472900cffe070002003700f9
:104de8000000eb00ccfe07000080fa00000006007f
:104df8001800fa00300f98006000b80020079800eb
:104e0800310798000e0078008000b0000500090006
:104e18000018eb000058eb0064004700a2002000d7
:104e2800be089000d8ed0700c05629005f010700b2
:104e3800640047005d010700490107003e08900033
:104e4800e00f50001a003400203a290005ff07003f
:104e580000c6b300510007000000eb00000f780007
:104e68000f003700be089000a00020000001780065
:104e7800110009008200d8008000fd00100798008a
:104e88001e0090006500b900000078001e00400078
:104e9800214f2900614078002f0007001e0fe8000d
:104ea8001e007800e30f5000eeff340002003700c8
:104eb8000000eb00ebfe07000080fa00000006008f
:104ec8000200fa00004f78001e407800e04f5000c2
:104ed8000300320090572900340107000200370010
:104ee80060582900310107001d0107001e407800a5
:104ef800e04f500003003200200e29005dfe07003d
:104f0800020037000000eb005afe07000080fa009c
:104f1800000006000400fa00204798002e40900088
:104f28000080fb0040128800cdc2a9000000eb0001
:104f3800000f780002003700000000001e0fe80094
:104f4800700220009e007800808f5000faff340025
:104f58000080fa00000006000400fa0020479800cc
:104f68002e4090000080fb0040128800cdc2a800af
:104f78000000eb00000f780002003700000000007e
:104f88001e0fe800700220009e007800808f5000fd
:104f9800faff34000080fa00000006000200fa0060
:104fa800004f78009e4078006fc06000d9ff07006e
:104fb8009e4078000180fb004400de00004078003d
:104fc80070404000d3ff07000080fa000000060090
:104fd8000200fa00004f780000c2b300cdff0700be
:104fe8001e407800cbff07000080fa000000060092
:104ff8000200fa00004f78001147980010c2b30071
:10500800c4ff07001e407800c2ff07001e40900042
:10501800c0ff07000080fa00000006000200fa0046
:10502800004f78001147980020c2b300b9ff07006d
:105038001e407800b7ff07001e409000b5ff07002c
:105048000080fa00000006000200fa00004f780015
:1050580000c4b3001e407000aeff07000080fa00d5
:10506800000006000200fa00004f780010c8b300e4
:10507800a8ff07001e407800a6ff07000080fa007e
:10508800000006000200fa00004f780020c8b300b4
:10509800a0ff07001e4078009eff07000080fa006e
:1050a800000006000200fa00004f780000cab300b2
:1050b8001e40700097ff07000080fa0000000600fd
:1050c8000200fa00004f780040cab3001e4070008a
:1050d80090ff07000080fa00000006000200fa00b6
:1050e800004f780060cab3001e40700089ff0700b7
:1050f8000080fa00000006000200fa00004f780065
:1051080080cab30083ff07001e40780081ff0700b4
:105118000080fa00000006000200fa00004f780044
:1051280011479800b0cab3007aff07000040eb00af
:1051380078ff07001e40780076ff07001e409000a9
:1051480074ff0700c0cab30072ff07000080fa00ae
:10515800000006000200fa00004f7800d0cab30031
:105168006cff0700e0c8b3001e40700069ff07002d
:105178000080fa00000006000200fa00004f7800e4
:10518800e0cab3001e40700062ff07000080fa000a
:10519800000006000200fa00004f780000cbb300c0
:1051a8001e4070005bff07000080fa000000060048
:1051b8000200fa00004f780000ccb3001e407000d7
:1051c80054ff07000080fa00000006000200fa0001
:1051d800004f780030cdb3004eff07001e40780026
:1051e8004cff07000080fa00000006000200fa00e9
:1051f800004f780050cdb30046ff07001e407800ee
:1052080044ff07000080fa00000006000200fa00d0
:10521800004f780080cdb3003eff07001e407800a5
:105228003cff07000080fa00000006000200fa00b8
:10523800004f780090cdb30036ff07001e4078007d
:1052480034ff07000080fa00000006000200fa00a0
:10525800004f7800a0cdb3002eff07001e40780055
:105268000014a0002bff07000080fa0000000600d1
:105278000200fa00004f7800b0cdb30025ff070008
:105288001e40780023ff07000080fa000000060097
:105298000200fa00004f780000ceb3001e407000f4
:1052a8001cff07000080fa00000006000000fa005a
:1052b80030ceb30017ff07000080fa000000060098
:1052c8000400fa00004f7800114798002247980020
:1052d8003347980010c9b3000eff07001e4078003e
:1052e8000cff07001e4090000aff07002e409000a8
:1052f80008ff07003e40900006ff07000080fa0004
:10530800000006000000fa0020c9b30001ff0700f2
:105318000040eb00fffe070050c5b300fdfe07008c
:10532800a0cab300fbfe070000c0eb00f9fe0700af
:1053380030c9b300f7fe070000c0eb00f5fe070018
:1053480000c0eb00f3fe070000c0eb00f1fe070011
:1053580000c0eb00effe07000080fa000000060026
:105368000000fa00d0002000201188000000000092
:10537800111180000010200000806000e00f500034
:10538800fbff3200a0002000201188000000000070
:10539800111180000010200000806000e00f500014
:1053a800fbff32000080fa00000006000400fa004b
:1053b800100798000000eb00000f78000d00370080
:1053c8001e0078009e009000008040001040780089
:1053d8000000fb00201188001e0fe80000000000fc
:1053e800111180000010200000806000e00f5000c4
:1053f800fbff32001e0078009e00900000804000f5
:1054080010407800e04f5000edff3a000080fa00ad
:10541800000006000000fa000000eb000080fa001f
:10542800000006000400fa00204798000000eb0086
:10543800000f78003e003700cc82a8000000000072
:105448000000000000000000000000000000000054
:105458000000000000000000000000000000000044
:105468000000000000000000000000000000000034
:105478000000000000000000000000000000000024
:105488000000000000000000000000000000000014
:105498000000000000000000000000000000000004
:1054a80000000000000000000000000000000000f4
:1054b80000000000cc82a9000000000000000000ed
:1054c80000000000000000000000000000000000d4
:1054d80000000000000000000000000000000000c4
:1054e80000000000000000000000000000000000b4
:1054f80000000000000000000000000000000000a4
:105508000000000000000000000000000000000093
:105518000000000000000000000000000000000083
:105528000000000000000000000000001e0fe8005e
:105538002e4090000080fb009e0f5000beff3d00f3
:105548000080fa00000006000400fa0020479800d6
:105558000000eb00000f78003e003700cc82a80066
:105568000000000000000000000000000000000033
:105578000000000000000000000000000000000023
:105588000000000000000000000000000000000013
:105598000000000000000000000000000000000003
:1055a80000000000000000000000000000000000f3
:1055b80000000000000000000000000000000000e3
:1055c80000000000000000000000000000000000d3
:1055d8000000000000000000cc82a80000000000cd
:1055e80000000000000000000000000000000000b3
:1055f80000000000000000000000000000000000a3
:105608000000000000000000000000000000000092
:105618000000000000000000000000000000000082
:105628000000000000000000000000000000000072
:105638000000000000000000000000000000000062
:105648000000000000000000000000000000000052
:105658001e0fe8002e4090000080fb009e0f5000b7
:10566800beff3d000080fa00000006000000fa00be
:10567800a0c0b3006bff0700c0c8b300b2ff0700ab
:1056880040c1b30067ff070020c8b300aeff0700a2
:1056980040c1b30063ff070020c8b300aaff07009a
:1056a80040c6b3005fff07000080fa000000060054
:1056b8001800fa00300f98006000b8002007980022
:1056c800310798000e0078008000b000050009003e
:1056d8000018eb000058eb0064004700a20020000f
:1056e800be089000a8eb0700e06f29002fff070015
:1056f800640047002dff070019ff07000000eb00ba
:10570800000f78000d0037000000eb00100798002c
:1057180004003700000000001e0090000000e800b0
:10572800100798009e00900070702000808f500035
:10573800f8ff3400cdff07001e0fe8003e08900078
:105748006300b900000078009e0f5000eeff3c0097
:105758000080fa00000006000000fa000120800026
:10576800f08f2f00808060000040200000807000d3
:10577800002088000000000001208000000e2000aa
:105788008080600000082000808f5000faff3a00f7
:105798008120800000fc2f00008060003000b300f2
:1057a8008020880081208000f0f32f0000806000b6
:1057b8008020880013c4a90012c4a80012e4a8001d
:1057c8009120800070fc2f000080600090208800ed
:1057d8009120800080ff2f00008060003000b3001f
:1057e8009020880091208000f08f2f00808060003a
:1057f8000010200000807000902088000004a8009d
:10580800002280007f006000002288004064a90018
:105818000121800000ff2f00008060000000a00030
:1058280000218800c1208000c0ff2f000080600098
:10583800c020880080218000ff00600000002e004a
:1058480000807000802188003064a80010002000cb
:10585800a02088000004a90001208000f08f2f00fc
:105868000080600000208800000000000120800007
:10587800000e200000806000e00f5000fbff3a009f
:1058880081c3a90081a3a800011c8000f0fc2f009f
:10589800808060000002200000807000001c8800ea
:1058a800011c8000c0ff2f0000806000001c8800e1
:1058b80060042000101c880070002000501c880024
:1058c80020442000401c880000602000201c880024
:1058d80081e3a8008dc3a9008da3a900611c8000e5
:1058e800f0fc2f0080806000000220000080700023
:1058f800601c8800611c8000c0ff2f0000806000d1
:10590800601c880020022000701c880070002000a5
:10591800b01c880000442000a01c88000060200003
:10592800801c88008de3a80030e4a80031e4a900b9
:10593800802180003000b300802188008121800010
:105948000030200000807000802188000080fa006c
:10595800000006000000fa006072290093fe0700ac
:105968007ffe070044c0b30023c0b3000041eb0032
:105978008040eb000040eb000300070010c0b300bc
:105988000080fa00000006000600fa00004f7800c8
:1059980011479800224798003347980044479800d9
:1059a8009e4078000180fb004500dd000030890042
:1059b8000000eb00103089004000200020308900f2
:1059c8002e4090000080fb00c800dd001e409000c3
:1059d8000080fb0000807000303089004e4090004d
:1059e8000080fb00c800dd003e4090000080fb0006
:1059f8000080700040308900d0bc2a0050308900f7
:105a0800d0bc2a00603089003064a8000080fa0009
:105a1800000006000200fa000080eb00000f78008a
:105a28000021800061006000e00f50000700320094
:105a38000004a80000218000004078006f4060004a
:105a48000080fb00000f78000004a9001e00780009
:085a58000080fa0000000600c6
:020000040000fa
:105a6000360800000a0000000200000000001e00ce
:105a7000006400000000000000000000200800009a
:105a800016000000000000000008000020000000d8
:105a900000000000400800000200000002000000ba
:105aa00000000000002600000002000000000000ce
